:100000000FC100002BC1000029C1000027C1000062
:1000100025C1000023C1000021C100001FC1000054
:100020001DC100001BC100000C94440BEFC4000074
:1000300015C1000013C1000011C100000FC1000074
:100040000DC100000BC1000009C1000007C1000084
:1000500005C1000003C1000001C10000FFC0000095
:10006000FDC00000FBC00000F9C00000F7C00000A8
:10007000F5C00000F3C00000F1C00000EFC00000B8
:10008000EDC00000EBC00000E9C00000E7C00000C8
:10009000E5C00000E3C00000402823294D795553F6
:1000A00042204D6F75736520486F737420417070E6
:1000B000004028232932323A31323A31390040287F
:1000C00023294A616E20323420323030380064589F
:1000D0003A2532642064593A25326420427574749A
:1000E0006F6E3A25640D0A004D6F75736520456E7D
:1000F000756D6572617465642E0D0A00436F6E74D0
:10010000726F6C204572726F722E0D0A00496E7606
:10011000616C69642050726F746F636F6C2E0D0A8E
:1001200000496E76616C6964204465766963652078
:10013000547970652E0D0A0047657474696E6720E6
:10014000436F6E66696720446174612E0D0A004337
:100150006F6E74726F6C206572726F722E0D0A0072
:10016000202D2D20496E2053746174652025640D67
:100170000A00202D2D204572726F7220436F646536
:100180002025640D0A001B5B34316D4465762045E3
:100190006E756D204572726F720D0A00202D2D2034
:1001A0004572726F7220436F64652025640D0A00EA
:1001B0001B5B34316D486F7374204D6F646520454F
:1001C00072726F720D0A0044657669636520556E20
:1001D00061747461636865642E0D0A004465766914
:1001E00063652041747461636865642E0D0A001BA9
:1001F0005B306D1B5B34376D1B5B376D1B5B324AAD
:100200004D6F75736520486F73742044656D6F2062
:1002100072756E6E696E672E0D0A1B5B32376D004C
:1002200011241FBECFEFD0E2DEBFCDBF11E0A0E0B2
:10023000B1E0E2EDF7E100E00BBF02C007900D92E4
:10024000A633B107D9F711E0A6E3B1E001C01D92D2
:10025000A135B107E1F783D30C94E80BD1CEA2E02E
:10026000B0E0E5E3F1E00C94C10BFE01379661913B
:100270007191FA83E983E0914D01F0914E01838100
:100280008860838349815A8180914D0190914E010C
:100290003DD0E0914D01F0914E012381277F2383D2
:1002A000E2E022960C94DD0B0F931F93CF93DF9324
:1002B000EC01E0914D01F0914E01838181FF1EC060
:1002C00000E010E00BC0FD0120853185BD01F90182
:1002D0000995892B11F00FEF1FEF2196FE018491F4
:1002E000A0914D01B0914E01882369F7ED01E88599
:1002F000F985BD018AE00995892B11F00FEF1FEFF9
:10030000C801DF91CF911F910F9108952F923F92D5
:100310005F926F927F928F929F92AF92BF92CF9295
:10032000DF92EF92FF920F931F93CF93DF93CDB79E
:10033000DEB72B970FB6F894DEBF0FBECDBF3C01E2
:100340004B016A01FC0117821682838181FD03C083
:100350008FEF9FEFAEC11E010894211C311CF301E9
:100360003381F40133FD859133FF81914F0188235F
:1003700009F49CC1853239F433FD859133FF8191B5
:100380004F01853221F4B30190E0C1D1E8CF982F1D
:10039000AA2410E055241032B0F49B3269F09C324C
:1003A00028F4903251F0933271F40BC09D3239F041
:1003B000903349F411602AC01260146027C018609D
:1003C00025C0106123C017FD2AC0292F20532A30D1
:1003D00088F416FF07C08AE0A89EC0011124A22E4F
:1003E000A80E14C08AE0589EC0011124522E580E47
:1003F00010620CC09E3221F416FD58C1106406C074
:100400009C3611F4106802C0983649F4F40133FDAB
:10041000959133FF91914F01992309F0BCCF892F1A
:100420008554833018F08052833038F424E030E073
:10043000C20ED31E8FE389830FC0933631F09337FA
:1004400081F0933509F052C01FC0F6018081898385
:1004500022E030E0C20ED31E710181E0A82EB12C43
:1004600011C0F601E080F18016FD03C06FEF7FEF51
:1004700002C06A2D70E022E030E0C20ED31EC70138
:100480003BD15C011F7712C0F601E080F18016FDC0
:1004900003C06FEF7FEF02C06A2D70E022E030E012
:1004A000C20ED31EC7011DD15C01106813FF06C028
:1004B00019C0B30180E290E02AD15A94852D90E0D2
:1004C000A816B906B0F30EC0F70117FD859117FF06
:1004D00081917F01B30190E01AD151105A94089490
:1004E000A108B108A114B10479F7DDC0943611F068
:1004F000993661F517FF0AC0F6016081718182812A
:10050000938124E030E0C20ED31E0DC0F60180813D
:1005100091819C01B901882777FD8095982F42E051
:1005200050E0C40ED51E012F0F7697FF08C090959E
:100530008095709561957F4F8F4F9F4F00682AE09F
:1005400030E0A10110D1B82EB2183CC0953721F48B
:100550001F7E2AE030E01CC0197F9F3661F0903783
:1005600020F4983509F0A2C00FC0903739F09837C1
:1005700009F09CC004C028E030E00AC0106114FDFE
:10058000146020E130E004C014FD166020E132E088
:1005900017FF08C0F601608171818281938144E078
:1005A00050E008C0F60180819181BC0180E090E0BC
:1005B00042E050E0C40ED51EA101D5D0B82EB2182D
:1005C000012F0F7706FF09C00E7FBA1430F404FF25
:1005D00006C002FD04C00F7E02C01B2D01C01A2DF3
:1005E00004FF0CC0FE01EB0DF11D8081803311F47E
:1005F000097E08C01F5F02FF05C003C0802F8678F8
:1006000009F01F5FE02E03FD13C000FF0EC015159B
:1006100010F0AB2C0AC0AB2CA50CA11A152D05C0EF
:10062000B30180E290E073D01F5F1515C8F304C0DA
:10063000151510F4511A01C05524E4FE0FC0B30182
:1006400080E390E064D0E2FE1CC0E1FE03C088E5D8
:1006500090E002C088E790E0B3010CC08E2D867850
:1006600081F0E1FE02C08BE201C080E207FD8DE275
:10067000B30190E04CD005C0B30180E390E047D0D7
:10068000AA94BA14C8F3BA94F101EB0DF11D80815C
:10069000B30190E03CD0BB2031F0F5CFB30180E254
:1006A00090E035D05A945520C9F759CEF301868190
:1006B00097812B960FB6F894DEBF0FBECDBFDF91AA
:1006C000CF911F910F91FF90EF90DF90CF90BF904F
:1006D000AF909F908F907F906F905F903F902F9002
:1006E0000895FC010590615070400110D8F7809585
:1006F00090958E0F9F1F0895FC01615070400190EE
:100700000110D8F7809590958E0F9F1F08950F9335
:100710001F93CF93DF938C01EB018B8181FF1BC073
:1007200082FF0DC02E813F818C819D812817390762
:1007300064F4E881F9810193F983E88306C0E885D0
:10074000F985802F0995892B31F48E819F8101963F
:100750009F838E8302C00FEF1FEFC801DF91CF91FF
:100760001F910F910895FA01AA27283051F12031E5
:1007700081F1E8946F936E7F6E5F7F4F8F4F9F4F35
:10078000AF4FB1E03ED0B4E03CD0670F781F891F77
:100790009A1FA11D680F791F8A1F911DA11D6A0F45
:1007A000711D811D911DA11D20D009F468943F91F8
:1007B0002AE0269F11243019305D3193DEF6CF01F7
:1007C0000895462F4770405D4193B3E00FD0C9F7BD
:1007D000F6CF462F4F70405D4A3318F0495D31FD2A
:1007E0004052419302D0A9F7EACFB4E0A69597957D
:1007F000879577956795BA95C9F700976105710553
:1008000008959B01AC010A2E06945795479537959C
:100810002795BA95C9F7620F731F841F951FA01DF6
:100820000895823031F48BB1607C8F73862B8BB945
:100830000895813029F48BB160738F7C862B8BB93E
:100840000895CF92DF92EF92FF920F931F93CF9371
:10085000DF93CDB7DEB728970FB6F894DEBF0FBE93
:10086000CDBF7C01CDB6DEB6DE011196E6E0F1E04B
:1008700088E001900D928150E1F7A0E4B1E0FE0123
:10088000319688E001900D928150E1F76115710574
:10089000E1F48DB79EB709970FB6F8949EBF0FBECF
:1008A0008DBF0DB71EB70F5F1F4F89E090E090938B
:1008B000470180934601C8011AD4282FF80182818C
:1008C0009381F701918380830AC0F7018081918130
:1008D0009093470180934601CB0109D4282F822FA2
:1008E00090E00FB6F894DEBE0FBECDBE28960FB6D0
:1008F000F894DEBF0FBECDBFDF91CF911F910F9156
:10090000FF90EF90DF90CF9008950F931F93082FE3
:1009100086E891E0C9DC10E01F930F9382E791E035
:100920009F938F939CDC80914A0190E09F938F93DB
:1009300080E691E09F938F9392DC8DB79EB70896E7
:100940000FB6F8949EBF0FBE8DBF1F910F910895F3
:100950008CED91E0A9DC8BB18F708BB908951F935A
:1009600080E8809361001092610080E895E235D2C2
:1009700086E191E090934E0180934D018AB1806FA2
:100980008AB98BB18F708BB98BB18F7080698BB93D
:1009900060E082E0BDD28FEE91E086DC82E0809361
:1009A0003C0110E0812F90E0FC01EE0FFF1FE80FEB
:1009B000F91FE050FF4F8281882321F00190F081E0
:1009C000E02D09951F5F123068F3EBCF0F931F9353
:1009D000082F8AD280EB91E067DC10E01F930F9321
:1009E0008CE991E09F938F933ADC8BB18F70806993
:1009F0008BB90F900F900F900F90FFCF87EC91E085
:100A000053DC8BB18F7080698BB908951F920F9260
:100A10000FB60F921124FF920F931F932F933F93C2
:100A20004F935F936F937F938F939F93AF93BF93F6
:100A3000EF93FF938091F80081FF58C08091F800F8
:100A40008D7F8093F80081E08093A7008091A600BD
:100A500080FF4CC08091AE0080FF48C0F090AF0096
:100A60000091AF001091AF008BB18F708BB9101651
:100A700014F460E203C0002319F060E181E0D1DEEC
:100A8000111614F460E403C0112319F060E882E049
:100A9000C8DEFF2021F08BB18F70806F8BB98F2D56
:100AA00090E09F938F93812F992787FD90959F9337
:100AB0008F93802F992787FD90959F938F938EEC2E
:100AC00090E09F938F93CBDB8091A6008F778093EC
:100AD000A6008091A6008E7F8093A6008DB79EB75A
:100AE00008960FB6F8949EBF0FBE8DBFFF91EF9191
:100AF000BF91AF919F918F917F916F915F914F9136
:100B00003F912F911F910F91FF900F900FBE0F906B
:100B10001F901895CF92DF92EF92FF920F931F9341
:100B2000CF93DF93CDB7DEB722970FB6F894DEBF31
:100B30000FBECDBFCDB6DEB660E070E07E0108949A
:100B4000E11CF11CC7017DDE882309F06BC089819F
:100B50009A8122E08130920718F081E090E067C02E
:100B6000EDB7FEB7E81BF90B0FB6F894FEBF0FBE4A
:100B7000EDBF0DB71EB70F5F1F4FB801C70161DE94
:100B8000F8018181823069F04DC0F801808190E0E8
:100B9000080F191F281B390BF8018181843019F4C3
:100BA00005C029813A812115310579F721153105D3
:100BB00019F482E090E03BC0F8018581833099F719
:100BC00087818230B1F083E090E031C0F80180810C
:100BD00090E0080F191F281B390BF801818185301F
:100BE00031F4828187FF05C03A83298307C08430AE
:100BF000E1F02115310551F71A82198289819A8114
:100C0000892B99F0F801828180933B018481958141
:100C1000909338018093370186818093390185E074
:100C200090E005C080E090E002C084E090E00FB664
:100C3000F894DEBE0FBECDBE22960FB6F894DEBF8E
:100C40000FBECDBFDF91CF911F910F91FF90EF901D
:100C5000DF90CF900895CF93DF93CDB7DEB728977D
:100C60000FB6F894DEBF0FBECDBF80914901882337
:100C700009F498C080914A01843021F0853009F050
:100C800091C026C0DE011196EEE0F1E088E001900F
:100C90000D928150E1F7A0E4B1E0FE01319688E0C9
:100CA00001900D928150E1F780E090E020D28823FE
:100CB00069F08FE491E0F8DA8BB18F7080618BB9C5
:100CC00080914901882309F46DC0FACF85E068C09E
:100CD00088E391E0E9DA1EDF8530C1F0823019F057
:100CE000833039F403C081E291E005C08DE091E0EA
:100CF00002C08CEF90E0D8DA8BB18F7080618BB935
:100D000080914901882309F44DC0FACF80913701C1
:100D1000909138018930910518F440E050E020C0EE
:100D20008131910518F440E150E01AC081329105FB
:100D300018F440E250E014C08134910518F440E307
:100D400050E00EC08138910518F440E450E008C02E
:100D50008150914018F440E550E002C040E650E078
:100D600060913B016770606D81E000D181E080930C
:100D7000A7008091A90080628093A9008091390129
:100D80008093AD008091A9008F7B8093A900809112
:100D9000AE0081608093AE0088EE90E085DA86E058
:100DA00080934A0128960FB6F894DEBF0FBECDBFE0
:100DB000DF91CF910895982F8091C80085FFFCCFD7
:100DC0009093CE0080E090E008958091C80087FF66
:100DD000FCCF8091CE0090E008951092C80028E1E9
:100DE0002093C90026E02093CA009C0140E050E017
:100DF00060E271EA87E090E092D421503040309375
:100E0000CD002093CC00089580914901882309F0FA
:100E100085D48091D8008C7F8093D8001092A00058
:100E20001092DE001092DA0010929F001092DF0004
:100E3000B3D08091DD008B7F8093DD008091D7005F
:100E400080618093D7008091DD0081608093DD0018
:100E50008091D8008F7B8093D8008091E0008160E2
:100E60008093E0008091D7008E7F8093D70010920E
:100E700049011092480110924A010895C5DF8CD0B3
:100E800080913F0181FD05C08091D70081608093F2
:100E9000D7008EE089BD09B400FEFDCF8091D80057
:100EA0008F778093D8008091D80080688093D80095
:100EB0008091D8008F7D8093D8008091DE00826081
:100EC0008093DE008091E0008E7F8093E00080912F
:100ED000D80080648093D80081E08093480110920C
:100EE000490181E090E008958FDF10923601109261
:100EF0003F01A8EDB0E08C918F778C9319BCE7EDA2
:100F0000F0E080818E7F80838C918F7E8C9308951A
:100F10000F931F93182F062F80914801882309F003
:100F2000E3DF10933601112319F480E0F7D31BC0DF
:100F3000123019F081E0F2D305C08091D7008F778D
:100F40008093D70081E0809348011092490188E0A6
:100F5000809324018091D80080618093D800009311
:100F60003F018CDF78941F910F91089587708093D3
:100F7000A700E9EAF0E08081816080836093AA00A5
:100F8000EBEAF0E080818270842B80831092AD00C8
:100F9000808182608083089520E030E081E090E0ED
:100FA000022E02C0880F991F0A94E2F78093A800CE
:100FB0001092A800822F87708093A7001092AE0035
:100FC0008091A6008F7E8093A6001092F5008091FC
:100FD000AB008D7F8093AB008091A9008E7F8093C2
:100FE000A9002F5F3F4F27303105C1F60895982F94
:100FF00020919E0080919F008F7D80939F00809123
:101000009E00816080939E0028C080919F0085FF94
:1010100006C080919F008F7D80939F0091508091AA
:1010200049018823E9F0809136018130C9F080912F
:10103000A60084FF07C08091A6008F7E8093A60043
:1010400092E00FC08091A60081FF07C08091A600AA
:101050008D7F8093A60093E004C09923B1F601C070
:1010600091E020FD05C080919E008E7F80939E00C0
:10107000892F90E008951F9310919E008091A00009
:101080008D7F8093A00084E1B2DF80919E0082601A
:1010900080939E0080919E0081FDFCCF80919F00F7
:1010A0008F7D80939F0080919E00816080939E0041
:1010B0002AE080919F0085FF06C080919F008D7F70
:1010C00080939F0006C080ED97E00197F1F72150D3
:1010D00081F710FD05C080919E008E7F80939E0059
:1010E0008091A00082608093A0001F910895CF920C
:1010F000DF92EF92FF920F931F93CF93DF937C01C8
:10110000C0909E00009146011091470180919E0081
:10111000816080939E0081E06ADF882309F064C1CA
:10112000E0E4F1E01092F5001092A7008091AA008F
:101130008F7C8093AA008091A600877F8093A60071
:101140008091A9008F7B8093A90081918093AF004B
:1011500081E0E834F807C9F78091A6008B7F80937F
:10116000A6008091A6008F778093A600C0E0D0E013
:101170000CC081E03CDFD82E882309F023C12196E2
:10118000E3E0C93EDE0709F41BC18091A60083FF9E
:10119000F0CF8091A600877F8093A6008091A90060
:1011A00080648093A90081E022DFD82E882309F093
:1011B00009C18091400187FF73C08091A9008062BE
:1011C0008093A9008091AA008F7C80618093AA00FF
:1011D0003FC08091A9008F7B8093A900C0E0D0E040
:1011E0000BC081E004DF882309F0CFC02196F3E033
:1011F000C93EDF0709F4E4C08091A60080FFF1CF6B
:101200008091F6009091F700892B51F400E010E0F6
:1012100007C08091AF00F70181937F01015010401A
:101220008091F6009091F700892B19F001151105B6
:1012300081F78091A90080648093A9008091A60025
:101240008E7F8093A6008091A6008F778093A60062
:10125000E114F10421F00115110509F0BACF8091D4
:10126000AA008F7C80628093AA008091A9008F7B66
:101270008093A900C0E0D0E00BC081E0B8DE8823F5
:1012800009F083C02196F3E0C93EDF0709F498C056
:101290008091A60082FFF1CF8091A6008B7F88C04D
:1012A0008091AA008F7C80628093AA0050C08091B8
:1012B000A9008F7B8093A90080912401282F30E022
:1012C0002017310728F4F701A701420F531F11C05F
:1012D000F701E80103C081918093AF0021978FEF60
:1012E000CF3FD807C1F7E00EF11E0AC0819180936D
:1012F000AF00E417F507D1F7E801C21BD30B7F015C
:101300008091A6008B7F8093A6008091A6008F77A6
:101310008093A60000E010E00BC081E068DE882327
:10132000A1F50F5F1F4FE3E0093E1E0709F448C017
:101330008091A60082FFF1CF8091A6008B7F8093E1
:10134000A6008091A6008F778093A6008E01E114FD
:10135000F10421F00115110509F0A9CF8091A90030
:1013600080648093A9008091AA008F7C8061809323
:10137000AA008091A9008F7B8093A900C0E0D0E0F3
:101380000BC081E034DE882311F0D82E1BC02196DB
:10139000F3E0C93EDF07A1F08091A60080FFF1CF06
:1013A0008091A90080648093A9008091A6008E7F1F
:1013B0008093A6008091A6008F778093A60002C03C
:1013C00064E0D62E8091A90080648093A900C0FCBF
:1013D00005C080919E008E7F80939E0081E0809367
:1013E000A8001092A8008D2D90E0DF91CF911F9161
:1013F0000F91FF90EF90DF90CF9008958930910585
:1014000018F480E090E008958131910518F480E1AE
:1014100090E008958132910518F480E290E00895FB
:101420008134910518F480E390E0089581389105A6
:1014300018F480E490E008958150914018F480E51C
:1014400090E0089580E690E008951F93CF93DF9396
:10145000CDB7DEB768970FB6F894DEBF0FBECDBF2D
:1014600080914801882309F405C110914A01113087
:1014700009F450C0113038F0123009F487C013302D
:1014800009F0F8C090C08091A0008D7F8093A000EB
:101490008091DD0081608093DD008091D8008F7E97
:1014A0008093D8008091DD0084608093DD0080917E
:1014B000D7008F7E8093D7006F9A779A8091DF0054
:1014C00080FF1DC08091DF008E7F8093DF007798C2
:1014D0008091D80080618093D8008091DD008B7F5F
:1014E0008093DD008091D70080618093D700809148
:1014F000DD0082608093DD0081E080934A0180916D
:10150000DF0082FFB7C08091DF008B7F8093DF0018
:101510007798B0C080919F0080FF27C080919F0086
:101520008E7F80939F0080919F008D7F80939F008E
:101530008091A00082608093A0000ADA1093490194
:10154000EDD080919E00816080939E0025DD84E631
:101550004EDD882309F047C08EDD84E648DD882310
:1015600009F041C082E080934A018091DF0082FF50
:1015700081C08091DF008B7F8093DF0081E0C5D93F
:101580008091DD0081608093DD006BC084E62FDDFB
:10159000882349F588E090E031DF482F60E080E063
:1015A000E5DC83E065C0DE011996EDE2F1E088E05C
:1015B00001900D928150E1F7A0E4B1E0FE0139966F
:1015C00088E001900D928150E1F7CE0101968FDD08
:1015D000882309F03EC08885809324014CDD88EC87
:1015E00006DD882311F080E035C08091A9008E7F50
:1015F0008093A9008091AB008D7F8093AB0081E048
:101600008093A8001092A8008091240190E0F6DE5B
:10161000482F60E080E0AADC8091AC0087FD02C02A
:1016200083E018C0DE015196E5E2F1E088E0019028
:101630000D928150E1F7A0E4B1E0FE01719688E0DF
:1016400001900D928150E1F780E090E050DD882319
:1016500059F082E05AD98091DD0081608093DD00ED
:10166000CDD910924A0106C081E08093A10084E0A8
:1016700080934A0168960FB6F894DEBF0FBECDBFC7
:10168000DF91CF911F9108951F920F920FB60F9285
:1016900011242F933F934F935F936F937F938F9377
:1016A0009F93AF93BF93EF93FF9380919F0081FF30
:1016B0000FC08091A00081FF0BC080919F008D7FA3
:1016C00080939F001092490199D928D010924A0125
:1016D0008091DF0081FF11C08091DE0081FF0DC08D
:1016E0008091DF008D7F8093DF00779880E06ED956
:1016F00085D91092490110924A01FF91EF91BF9153
:10170000AF919F918F917F916F915F914F913F9199
:101710002F910F900FBE0F901F9018950895A1E282
:101720001A2EAA1BBB1BFD010DC0AA1FBB1FEE1F5B
:10173000FF1FA217B307E407F50720F0A21BB30BA6
:10174000E40BF50B661F771F881F991F1A9469F722
:1017500060957095809590959B01AC01BD01CF017E
:1017600008952F923F924F925F926F927F928F9245
:101770009F92AF92BF92CF92DF92EF92FF920F9320
:101780001F93CF93DF93CDB7DEB7CA1BDB0B0FB62A
:10179000F894DEBF0FBECDBF09942A8839884888E7
:1017A0005F846E847D848C849B84AA84B984C8847D
:1017B000DF80EE80FD800C811B81AA81B981CE0F74
:1017C000D11D0FB6F894DEBF0FBECDBFED01089559
:0217D000FFCF49
:1017D200250A012B06018006000200000000000914
:1017E2000100000000000000000300000000DB0612
:1017F200E506000008000501000000000080060068
:06180200010000080000D7
:00000001FF
