:10000000B6C00000D1C00000CFC00000CDC00000CD
:10001000CBC00000C9C00000C7C00000C5C00000C0
:10002000C3C00000C1C00000A3C40000BDC00000E8
:10003000BBC00000B9C00000B7C00000B5C00000E0
:10004000B3C00000B1C00000AFC00000ADC00000F0
:10005000ABC00000A9C00000A7C00000A5C0000000
:10006000A3C00000A1C000009FC000009DC0000010
:100070009BC0000099C0000097C0000095C0000020
:1000800093C0000091C000008FC000008DC0000030
:100090008BC0000089C00000120101010000004077
:1000A000000049410000010203010902640002014D
:1000B00000C0320904000000010100000924010011
:1000C00001280001010C24020101020001000000CE
:1000D00000092403020101000100090401000001DC
:1000E00002000009040101010102000007240102CD
:1000F0000101000B2402010102100180BB0009056F
:100100008105000101000007250100000000040333
:10011000090418034400650061006E0020004300DC
:1001200061006D0065007200610028034D007900D8
:100130005500530042002000410075006400690032
:100140006F00200049006E002000440065006D0033
:100150006F001C0330002E0030002E0030002E00F7
:1001600030002E0030002E0030002E003000112410
:100170001FBECFEFD0E2DEBFCDBF11E0A0E0B1E007
:10018000E2EEFAE000E00BBF02C007900D92A6304D
:10019000B107D9F711E0A6E0B1E001C01D92AF3080
:1001A000B107E1F71AD09CC42BCF8B30A9F4613092
:1001B00099F48091E800877F8093E8008091E800BF
:1001C0008E7F8093E8008091E8008F778093E8002D
:1001D0008091E80080FFFCCF08951F9380E8809312
:1001E0006100109261008AB1806F8AB98BB18F7003
:1001F0008BB985EA80937A00519880917E00826065
:1002000080937E0081E480937C0080917A008064FA
:1002100080937A008BB18F7080698BB960E081E048
:100220002BD182E08093080110E0812F90E0FC0147
:10023000EE0FFF1FE80FF91FE050FF4F8281882368
:1002400021F00190F081E02D09951F5F123068F3D5
:10025000EBCF80910E01882391F1809106018823D4
:1002600031F486EA87BD82E084BD81E085BDA99B2B
:1002700029C081E08093E9008091E80085FF1DC0DE
:100280008091780090917900E6E0880F991FEA95B7
:10029000E1F78F5F9F478093F100892F9927809323
:1002A000F1008091F2009091F3008050914029F488
:1002B0008091E8008F778093E800A99A089515BC93
:1002C00010920601089544E561E481E004D18BB108
:1002D0008F7080668BB90895CF93DF93DA01E901BF
:1002E000823061F0833089F0813009F036C088E9CE
:1002F00090E08D939C9382E190E024C08AEA90E0A4
:100300008D939C9384E690E01DC0613071F0613064
:1003100028F0623081F0633001F519C08EE091E081
:100320008D939C9384E090E00DC0E2E1F1E0ED93C9
:10033000FC93E49105C0EAE2F1E0ED93FC93E491D3
:100340008E2F90E09983888381E090E008C0E2E5F9
:10035000F1E0ED93FC93E491F3CF80E090E0DF9146
:10036000CF91089580910E01882309F0B8D3809130
:10037000D8008C7F8093D8001092E2001092DA00AF
:100380001092E100BCD08091E00081608093E00099
:100390008091D7008E7F8093D70010920E0110922B
:1003A0000D0110920C010895DDDFA9D080910B01A1
:1003B000282F80FF04C08091E000846003C08091FA
:1003C000E0008B7F8093E0008091D8008160809373
:1003D000D80021FD05C08091D70081608093D700AF
:1003E0008EE089BD09B400FEFDCF8091D8008F77E3
:1003F0008093D8008091D80080688093D800809145
:10040000D8008F7D8093D80040E360E080E063D027
:100410008091EE0087FF17C08091E0008E7F80936F
:10042000E0008091E20081608093E2008091E20030
:1004300088608093E20081E080930D0110920E01AC
:1004400081E090E0089581E04AD380E090E0089553
:1004500089DF1092070110920B01A8EDB0E08C919A
:100460008F778C9319BCE7EDF0E080818E7F8083DD
:100470008C918F7E8C9308950F931F93182F062FC6
:1004800080910D01882309F0E3DF10930701112308
:1004900019F480E024D31CC0113019F081E01FD37F
:1004A00005C08091D70080688093D70081E0809359
:1004B0000D0110920E018091D80080618093D800C8
:1004C00000930B018091D80081608093D8007894CC
:1004D0001F910F91089587708093E900EBEEF0E093
:1004E0008081816080836093EC00EDEEF0E080819C
:1004F0008270842B8083808182608083089540E0B5
:1005000050E0242F27702093E9008091EB00982F72
:1005100091609093EB008E7F8093EB002093E90035
:100520001092F0008091ED008D7F8093ED0080911E
:10053000EB008E7F8093EB004F5F5F4F473051059C
:1005400001F708951F93CF93DF93CDB7DEB72897B8
:100550000FB6F894DEBF0FBECDBF6091F100262F1D
:1005600030E08091F1008530A9F0863050F4813080
:1005700009F48DC1813008F4F5C0833009F0D3C18E
:100580005DC1883009F455C0893049F1863009F0E1
:10059000CAC16AC0662309F0C6C19091F10080917A
:1005A000E3009F738078982B9093E3008091E8009C
:1005B000877F8093E8008091E8008E7F8093E80039
:1005C0008091E8008F778093E8008091E80080FFB9
:1005D000FCCF8091E30080688093E300A5C166238F
:1005E00009F0A1C11091F1009E01295F3F4FAE01BA
:1005F0004F5F5F4F81E070DE882309F495C1E98188
:10060000FA817196E491E11708F48EC110930C0100
:100610008091E800877F8093E8008091E8008E7FDA
:100620008093E8008091E8008F778093E8004BDEAC
:100630007BC1603809F077C180910C018093F10093
:100640008091E800877F8093E8008091E8008E7FAA
:100650008093E8008091E8008F778093E800809194
:10066000E80082FFFCCF75C06091F1008091F1003D
:100670009E01295F3F4FAE014D5F5F4F2DDE882306
:1006800009F452C18091F10089838091F10089833E
:100690002091F1008091F10090E0582F442730E044
:1006A000422B532B8091E800877F8093E8002F81B5
:1006B00038852417350730F42F733070232B21F43D
:1006C000A1E003C058874F83A0E06B817C812F811C
:1006D000388520C08091E80080FFFCCFFB0190E0CE
:1006E00006C09F5F84918093F10031969A01BF010B
:1006F0002115310529F0A90141505040903489F766
:100700008091E8008E7F8093E8008091E8008F77E9
:100710008093E8002115310521F08091E80082FFE7
:10072000D9CF8091E80082FD14C0AA2371F0809196
:10073000E80080FFFCCF8091E8008E7F8093E80086
:100740008091E8008F778093E8008091E80082FF35
:10075000FCCF8091E8008B7F8093E8008091E800D7
:100760008F7769C0A9014F7150704330510509F46A
:10077000DAC0207630702034310509F4D4C080917D
:10078000F10089838091F10089838091F1004130EB
:10079000510531F04230510509F1452B19F0C4C023
:1007A00090E025C09E01295F3F4FAE014B5F5F4F38
:1007B00060910C0182E090DD882309F4B5C0ED81E1
:1007C000FE813796E4918E2F807C11F092E001C07B
:1007D00090E08E2F807A59F0916009C087708093E5
:1007E000E9009091EB00909591701092E900809152
:1007F000E800877F8093E8009093F1001092F10069
:100800008091E8008E7F8093E8008091E8008F77E8
:100810008093E8008091E80082FFFCCF8091E8009F
:100820008B7F8093E8008091E8008F778093E800C9
:100830008091E800877F8093E80076C0A9014F711E
:1008400050704330510509F46EC02076307020346A
:10085000310509F468C09091F1008091F10089831D
:100860008091F1004230510509F05EC0992309F0F2
:100870005BC0982F97709093E9008091EB0080FF08
:100880004FC09923E1F18091EB00806236C0A9014D
:100890004F7150704330510509F445C020763070D7
:1008A0002034310509F43FC09091F1008091F100AE
:1008B00089838091F10042305105B1F59923A1F56A
:1008C000282F27702093E9008091EB0080FF28C03B
:1008D0002223A9F08091EB008F7D8093EB0081E0D3
:1008E00090E002C0880F991F2A95E2F78093EA00F2
:1008F0001092EA008091EB0088608093EB001092E8
:10090000E9008091E800877F8093E8008091E8000B
:100910008E7F8093E8008091E8008F778093E800D5
:100920001092E90001C041DC8091E80083FF0AC019
:100930008091EB0080628093EB008091E800877FDC
:100940008093E80028960FB6F894DEBF0FBECDBFA7
:10095000DF91CF911F91089580910E01882339F086
:100960001092E9008091E80083FF01C0EBCD08956B
:100970001F920F920FB60F9211242F933F934F9314
:100980005F936F937F938F939F93AF93BF93EF93F7
:10099000FF938091DA0080FF2EC08091D80080FF05
:1009A0002AC08091DA008E7F8093DA0098D08091FF
:1009B000D90080FF0DC093D080910D018823D9F01C
:1009C000F3DC8823C1F081E080930E0188D013C04E
:1009D00086D08091E00081608093E0008091D70014
:1009E0008E7F8093D7007BD08091DA008E7F8093BA
:1009F000DA0010920E018091E10080FF1AC0809110
:100A0000E20080FF16C08091E1008E7F8093E100BC
:100A10008091D80080628093D80019BC8091E20058
:100A20008E7F8093E2008091E20080618093E200FB
:100A300056D08091E10084FF1EC08091E20084FFC7
:100A40001AC08091E1008F7E8093E1008091D800F0
:100A50008F7D8093D8008EE089BD09B400FEFDCF64
:100A60008091E2008F7E8093E2008091E2008160BD
:100A70008093E20034D08091E10083FF1FC0809119
:100A8000E20083FF1BC08091E100877F8093E1003B
:100A900010920C018091E1008E7F8093E1008091A3
:100AA000E2008E7F8093E2008091E200806180937B
:100AB000E20040E360E080E00EDD11D0FF91EF91B5
:100AC000BF91AF919F918F917F916F915F914F9166
:100AD0003F912F910F900FBE0F901F901895089582
:020AE000FFCF46
:060AE200AC040129010132
:00000001FF
