:10000000A7C00000C2C00000C0C00000BEC0000009
:10001000BCC00000BAC00000B8C00000B6C00000FC
:10002000B4C00000B2C0000038C60000AEC000007E
:10003000ACC00000AAC00000A8C00000A6C000001C
:10004000A4C00000A2C00000A0C000009EC000002C
:100050009CC000009AC0000098C0000096C000003C
:1000600094C00000F1C0000090C0000014C1000066
:100070008CC000008AC0000088C0000086C000005C
:1000800084C0000082C0000080C000007EC000006C
:100090007CC000007AC00000120101010000004095
:1000A0000000535500000102030109024300020150
:1000B00000C0320904000001020201000524001002
:1000C000010524010301042402060524060001079A
:1000D00005830308000209040100020A000000076A
:1000E00005020240000007058102400000040309E8
:1000F0000418034400650061006E002000430061A5
:10010000006D006500720061002A034D0079005502
:10011000005300420020005500530042002D0052C1
:100120000053003200330032002000440065006DAF
:10013000006F001C0330002E0030002E0030002E17
:100140000030002E0030002E0030002E0030000065
:1001500011241FBECFEFD0E2DEBFCDBF11E0A0E083
:10016000B1E0E0E5FEE000E00BBF02C007900D92B9
:10017000AE30B107D9F712E0AEE0B1E001C01D9298
:10018000A232B107E1F7B1D162C63ACF8930910509
:1001900018F480E090E008958131910518F480E131
:1001A00090E008958132910518F480E290E008957E
:1001B0008134910518F480E390E008958138910529
:1001C00018F480E490E008958150914018F480E59F
:1001D00090E0089580E690E0089580910B018130D1
:1001E00011F490E305C0823011F490E201C090E078
:1001F00080910A01823009F4986080910C01863068
:1002000011F4926007C0873011F4946003C0883005
:1002100009F4966082E08093C80088ED8093C9005D
:100220009093CA00209106013091070140E050E010
:1002300060E472E48FE090E0E8D5215030403093E4
:10024000CD002093CC0008951F920F920FB60F920D
:1002500011242F933F934F935F936F937F938F93CB
:100260009F93AF93BF93EF93FF936091CE0080E194
:1002700091E0C2D1FF91EF91BF91AF919F918F918A
:100280007F916F915F914F913F912F910F900FBE92
:100290000F901F9018951F920F920FB60F92112476
:1002A0002F933F934F935F936F937F938F939F937E
:1002B000AF93BF93EF93FF9380911A02882329F0A5
:1002C00086E991E0C6D18093CE00FF91EF91BF9176
:1002D000AF919F918F917F916F915F914F913F91DE
:1002E0002F910F900FBE0F901F901895CF93DF9313
:1002F00080912102882309F449C082E08093E900BB
:100300008091E80085FD06C025C06091F100CE0116
:1003100073D102C0C6E9D1E08091F2009091F30060
:10032000892B99F78091E8008F778093E80080917E
:10033000C80085FF0FC08091C8008F7D8093C800E2
:1003400086E991E086D1982F8091C80085FFFCCF87
:100350009093CE0081E08093E900809194018823FE
:10036000A9F08091E80085FD06C0FBCFCE0171D1D8
:100370008093F10002C0C0E1D1E080919401882314
:10038000A9F78091E8008F778093E800DF91CF9103
:1003900008951F9388E090E0F9DE482F61EC83E038
:1003A0002FD280E490E0F2DE182F1460412F61E834
:1003B00081E026D2412F60E882E022D28BB18F709B
:1003C00080668BB91F910895CF93DF93CDB7DEB7C9
:1003D00021970FB6F894DEBF0FBECDBF982FE6E091
:1003E000F1E08091F10089838091F100898391325D
:1003F00039F0923209F45BC0903209F06DC02CC024
:10040000613209F069C08091E800877F8093E8003D
:1004100081918093F10081E0ED30F807C9F7809178
:10042000E8008E7F8093E8008091E8008F778093CA
:10043000E8008091E80080FFFCCF8091E80082FF17
:10044000FCCF8091E8008B7F8093E8008091E800EA
:100450008F778093E80040C06132F1F58091E80029
:10046000877F8093E8008091E80082FFFCCF809135
:10047000F100819381E0ED30F807C9F78091E80041
:100480008B7F8093E8008091E8008F778093E8006D
:100490008091E8008E7F8093E8008091E8008F775C
:1004A0008093E8008091E80080FD16C0FBCF6132A8
:1004B00099F48091E800877F8093E8008091E800BC
:1004C0008E7F8093E8008091E8008F778093E8002A
:1004D0008091E80080FFFCCF21960FB6F894DEBF34
:1004E0000FBECDBFDF91CF9108951F9380E8809319
:1004F0006100109261008AB1806F8AB98BB18F70F0
:100500008BB96BDE86E991E068D080E191E065D03F
:100510008BB18F7080698BB960E081E042D182E05D
:1005200080931B0210E0812F90E0FC01EE0FFF1F73
:10053000E80FF91FE050FF4F8281882321F00190DE
:10054000F081E02D09951F5F123068F3EBCFCF9358
:10055000DF93DA01E901823061F0833089F0813084
:1005600009F036C088E990E08D939C9382E190E099
:1005700024C08AEA90E08D939C9383E490E01DC0B0
:10058000613071F0613028F0623081F0633001F544
:1005900019C08DEE90E08D939C9384E090E00DC0A7
:1005A000E1EFF0E0ED93FC93E49105C0E9E0F1E0C8
:1005B000ED93FC93E4918E2F90E09983888381E002
:1005C00090E008C0E3E3F1E0ED93FC93E491F3CF16
:1005D00080E090E0DF91CF910895FC01DC01A0580C
:1005E000BF4F8D939C93DC01AE57BF4F8D939C936F
:1005F000EC57FF4F10820895AC01FC01EC57FF4F00
:100600008081803889F4FA01EE57FF4F8081918113
:100610000196918380839A0120583F4F8217930758
:1006200029F45183408302C08F5F8083FA01E05830
:10063000FF4FA081B1816C93A081B181CD01019662
:10064000918380838E179F0719F4FD0152834183A4
:100650000895CF93DF939C01EC01CE57DF4FE881E3
:10066000F9814191F983E883DC01AC57BF4F8C914C
:1006700081508C93C90180589F4FE817F90711F4F6
:1006800039832883842F90E0DF91CF910895809162
:100690002102882309F0B8D38091D8008C7F809301
:1006A000D8001092E2001092DA001092E100BCD063
:1006B0008091E00081608093E0008091D7008E7F80
:1006C0008093D700109221021092200210921F02F4
:1006D0000895DDDFA9D080911E02282F80FF04C07D
:1006E0008091E000846003C08091E0008B7F809364
:1006F000E0008091D80081608093D80021FD05C082
:100700008091D70081608093D7008EE089BD09B4C5
:1007100000FEFDCF8091D8008F778093D800809124
:10072000D80080688093D8008091D8008F7D809316
:10073000D80040E360E080E063D08091EE0087FF66
:1007400017C08091E0008E7F8093E0008091E200EE
:1007500081608093E2008091E20088608093E200F3
:1007600081E0809320021092210281E090E00895C0
:1007700081E04AD380E090E0089589DF10920E0175
:1007800010921E02A8EDB0E08C918F778C9319BC6B
:10079000E7EDF0E080818E7F80838C918F7E8C935B
:1007A00008950F931F93182F062F809120028823FE
:1007B00009F0E3DF10930E01112319F480E024D334
:1007C0001CC0113019F081E01FD305C08091D70003
:1007D00080688093D70081E08093200210922102EC
:1007E0008091D80080618093D80000931E02809190
:1007F000D80081608093D80078941F910F9108955C
:1008000087708093E900EBEEF0E080818160808367
:100810006093EC00EDEEF0E080818270842B8083A9
:10082000808182608083089540E050E0242F27700B
:100830002093E9008091EB00982F91609093EB005A
:100840008E7F8093EB002093E9001092F00080915E
:10085000ED008D7F8093ED008091EB008E7F809383
:10086000EB004F5F5F4F4730510501F708951F932D
:10087000CF93DF93CDB7DEB728970FB6F894DEBFDE
:100880000FBECDBF6091F100262F30E08091F100C6
:100890008530A9F0863050F4813009F48DC1813063
:1008A00008F4F5C0833009F0D3C15DC1883009F484
:1008B00055C0893049F1863009F0CAC16AC0662343
:1008C00009F0C6C19091F1008091E3009F73807898
:1008D000982B9093E3008091E800877F8093E80055
:1008E0008091E8008E7F8093E8008091E8008F7708
:1008F0008093E8008091E80080FFFCCF8091E300C6
:1009000080688093E300A5C1662309F0A1C110911E
:10091000F1009E01295F3F4FAE014F5F5F4F81E0C5
:1009200016DE882309F495C1E981FA817196E49174
:10093000E11708F48EC110931F028091E800877FB1
:100940008093E8008091E8008E7F8093E80080919A
:10095000E8008F778093E8001CDD7BC1603809F0E8
:1009600077C180911F028093F1008091E800877F1A
:100970008093E8008091E8008E7F8093E80080916A
:10098000E8008F778093E8008091E80082FFFCCF39
:1009900075C06091F1008091F1009E01295F3F4F89
:1009A000AE014D5F5F4FD3DD882309F452C18091C2
:1009B000F10089838091F10089832091F100809179
:1009C000F10090E0582F442730E0422B532B8091C8
:1009D000E800877F8093E8002F813885241735074A
:1009E00030F42F733070232B21F4A1E003C058871B
:1009F0004F83A0E06B817C812F81388520C080915E
:100A0000E80080FFFCCFFB0190E006C09F5F84916F
:100A10008093F10031969A01BF012115310529F02B
:100A2000A90141505040903489F78091E8008E7FB1
:100A30008093E8008091E8008F778093E80021158B
:100A4000310521F08091E80082FFD9CF8091E80044
:100A500082FD14C0AA2371F08091E80080FFFCCFD2
:100A60008091E8008E7F8093E8008091E8008F7786
:100A70008093E8008091E80082FFFCCF8091E8003D
:100A80008B7F8093E8008091E8008F7769C0A9018F
:100A90004F7150704330510509F4DAC02076307040
:100AA0002034310509F4D4C08091F100898380910C
:100AB000F10089838091F1004130510531F04230DD
:100AC000510509F1452B19F0C4C090E025C09E01E5
:100AD000295F3F4FAE014B5F5F4F60911F0282E085
:100AE00036DD882309F4B5C0ED81FE813796E491A7
:100AF0008E2F807C11F092E001C090E08E2F807AE2
:100B000059F0916009C087708093E9009091EB00E3
:100B1000909591701092E9008091E800877F809312
:100B2000E8009093F1001092F1008091E8008E7F30
:100B30008093E8008091E8008F778093E8008091AF
:100B4000E80082FFFCCF8091E8008B7F8093E80073
:100B50008091E8008F778093E8008091E800877F9C
:100B60008093E80076C0A9014F7150704330510561
:100B700009F46EC0207630702034310509F468C065
:100B80009091F1008091F10089838091F1004230D1
:100B9000510509F05EC0992309F05BC0982F97704A
:100BA0009093E9008091EB0080FF4FC09923E1F121
:100BB0008091EB00806236C0A9014F7150704330C4
:100BC000510509F445C0207630702034310509F410
:100BD0003FC09091F1008091F10089838091F100F4
:100BE00042305105B1F59923A1F5282F27702093A4
:100BF000E9008091EB0080FF28C02223A9F08091BA
:100C0000EB008F7D8093EB0081E090E002C0880FC5
:100C1000991F2A95E2F78093EA001092EA008091EA
:100C2000EB0088608093EB001092E9008091E8006F
:100C3000877F8093E8008091E8008E7F8093E800B2
:100C40008091E8008F778093E8001092E90001C05E
:100C5000BBDB8091E80083FF0AC08091EB008062DB
:100C60008093EB008091E800877F8093E8002896CE
:100C70000FB6F894DEBF0FBECDBFDF91CF911F91AD
:100C8000089580912102882339F01092E900809123
:100C9000E80083FF01C0EBCD08951F920F920FB6BD
:100CA0000F9211242F933F934F935F936F937F93F2
:100CB0008F939F93AF93BF93EF93FF938091DA004D
:100CC00080FF2EC08091D80080FF2AC08091DA007A
:100CD0008E7F8093DA0098D08091D90080FF0DC07C
:100CE00093D0809120028823D9F0F3DC8823C1F0CF
:100CF00081E08093210288D013C086D08091E000EB
:100D000081608093E0008091D7008E7F8093D70030
:100D10007BD08091DA008E7F8093DA0010922102DE
:100D20008091E10080FF1AC08091E20080FF16C030
:100D30008091E1008E7F8093E1008091D8008062F5
:100D40008093D80019BC8091E2008E7F8093E200EE
:100D50008091E20080618093E20056D08091E100B2
:100D600084FF1EC08091E20084FF1AC08091E100E0
:100D70008F7E8093E1008091D8008F7D8093D80092
:100D80008EE089BD09B400FEFDCF8091E2008F7E28
:100D90008093E2008091E20081608093E20034D091
:100DA0008091E10083FF1FC08091E20083FF1BC0A0
:100DB0008091E100877F8093E10010921F02809173
:100DC000E1008E7F8093E1008091E2008E7F80932E
:100DD000E2008091E20080618093E20040E360E005
:100DE00080E00EDD11D0FF91EF91BF91AF919F9107
:100DF0008F917F916F915F914F913F912F910F90C4
:100E00000FBE0F901F9018950895A1E21A2EAA1BED
:100E1000BB1BFD010DC0AA1FBB1FEE1FFF1FA217AA
:100E2000B307E407F50720F0A21BB30BE40BF50BA7
:100E3000661F771F881F991F1A9469F76095709530
:100E4000809590959B01AC01BD01CF010895FFCF26
:0E0E5000410601760101802500000000080027
:00000001FF
