:10000000CCC20000E8C20000E6C20000E4C200006A
:10001000E2C20000E0C20000DEC20000DCC200005C
:10002000DAC20000D8C200000C94D60ED4C2000080
:10003000D2C20000D0C20000CEC20000CCC200007C
:10004000CAC20000C8C20000C6C20000C4C200008C
:10005000C2C20000DBC40000BEC20000BCC200007F
:10006000BAC20000B8C20000B6C20000B4C20000AC
:10007000B2C20000B0C20000AEC20000ACC20000BC
:10008000AAC20000A8C20000A6C20000A4C20000CC
:10009000A2C20000A0C20000402823294D79555378
:1000A0004220546573742041707000402823293227
:1000B000323A31323A323400402823294A616E20E4
:1000C00032342032303038001B5B34336D555342AC
:1000D00020506F776572204F6E2E0D0A001B5B3427
:1000E000376D55534220506F776572204F66662EEC
:1000F0000D0A0043757272656E742074656D7065CB
:100100007261747572653A20256420446567726572
:1001100065732043656C636975730D0A0D0A001BD6
:100120005B306D1B5B34376D1B5B376D1B5B324A7D
:100130004D795553422044656D6F2072756E6E691E
:100140006E672E0D0A1B5B32376D001B5B376D45EA
:1001500056454E543A1B5B32376D201B5B34336D72
:10016000446576696365202D0D0A001B5B376D457C
:1001700056454E543A1B5B32376D201B5B34326D53
:10018000446576696365202B0D0A001B5B376D455E
:1001900056454E543A1B5B32376D204D616B6520DE
:1001A000456E64706F696E74730D0A00202D2D20EA
:1001B00052657120547970652025640D0A00202D48
:1001C0002D2052657120446174612025640D0A0060
:1001D0001B5B376D4556454E543A1B5B32376D20DD
:1001E0004374726C20526571756573740D0A00203A
:1001F0002D2D204572726F7220436F646520256437
:100200000D0A001B5B376D4556454E543A1B5B3259
:10021000376D201B5B34316D446576696365204D15
:100220006F6465204572726F720D0A001B5B376D3B
:100230000D0A2A2A50524F4752414D2041424F52F7
:10024000542A2A00202D2D204572726F7220436F90
:1002500064652025640D0A001B5B34316D446576AE
:1002600020456E756D204572726F720D0A00202D4B
:100270002D204572726F7220436F64652025640DD6
:100280000A001B5B376D4556454E543A1B5B3237AF
:100290006D201B5B34316D486F7374204D6F646546
:1002A000204572726F720D0A00202D2D204572724A
:1002B0006F7220436F64652025640D0A00202D2D88
:1002C000204D6F64652025530D0A004E2F410048D4
:1002D0004F535400444556494345001B5B376D4519
:1002E00056454E543A1B5B32376D201B5B34316DE3
:1002F000506F776572204F6E204661696C0D0A0061
:10030000202D2D204E6577204D6F64652025530DDF
:100310000A004E2F410044455649434500484F537B
:1003200054001B5B376D4556454E543A1B5B3237C4
:100330006D20554944204368616E67650D0A001BB6
:100340005B376D4556454E543A1B5B32376D205531
:1003500053422052657365740D0A001B5B376D456F
:1003600056454E543A1B5B32376D201B5B34326D61
:100370005553422057616B6575700D0A001B5B3742
:100380006D4556454E543A1B5B32376D201B5B342E
:10039000336D55534220536C6565700D0A001B5B2D
:1003A000376D4556454E543A1B5B32376D205553D9
:1003B0004220202D0D0A001B5B376D4556454E54DB
:1003C0003A1B5B32376D2055534220202B0D0A001B
:1003D0001B5B376D4556454E543A1B5B32376D20DB
:1003E00056425553202D0D0A001B5B376D4556456F
:1003F0004E543A1B5B32376D2056425553202B0D1D
:100400000A001B5B376D4556454E543A1B5B32372D
:100410006D2056425553204368616E67650D0A0092
:1004200012010101000000400000415400000102DF
:10043000030109021200010100C032090401000099
:10044000FF00000004030904180344006500610074
:100450006E002000430061006D00650072006100C5
:1004600016034D007900550053004200200044005F
:1004700065006D006F001C0330002E0030002E0060
:1004800030002E0030002E0030002E0030002E00F4
:100490003000B403B003AB03A603A0039A03940394
:1004A0008E03880381037A0373036B0363035B0387
:1004B00053034A03410338032F0325031B0311038E
:1004C0000703FC02F102E602DB02D002C402B8021A
:1004D000AC02A002940288027C026F026302560200
:1004E0004A023D023102250218020C020002F30109
:1004F000E701DB01CF01C401B801AC01A101960104
:100500008B01800176016B01610157014D014401AE
:100510003A01310128011F0117010F010601FE00F8
:10052000F700EF00E800E100DA00D300CD00C700DB
:10053000C000BA00B500AF00AA00A4009F009A0056
:10054000960091008C008800840080007C00780078
:10055000740071006D006A006700640061005E0055
:100560005B0058005500530050004E004C004900FD
:1005700047004500430041003F003D003C003A0079
:10058000380045464765666700202B2D2E303132F6
:100590003334353637383968000011241FBECFEFA9
:1005A000D0E2DEBFCDBF11E0A0E0B1E0EEE8F0E2C6
:1005B00000E00BBF02C007900D92AE32B107D9F731
:1005C00011E0AEE2B1E001C01D92AB34B107E1F73A
:1005D0004ED20C94461014CDABE0B0E0E2EFF2E066
:1005E0000C940F104C016B017A01FC0117821682EA
:1005F000838181FD08C08FEF9FEF0DC122E030E0C5
:10060000E20EF31E0CC099E8292E95E0392E3E012A
:100610000894611C711C82E8482E85E0582EF40174
:100620000381F60103FD859103FF81916F0188230A
:1006300009F4EEC0853259F403FD659103FF619121
:100640006F01653219F0162FBB241BC085E2B4017F
:1006500090E028C0112341F1612F70E0C101DFD08B
:10066000892B49F4133219F4F0E1BF2A04C01C3677
:1006700061F420E8B22AF60103FD159103FF119100
:100680006F01B7FEE7CF112379F0612F70E0C2014F
:10069000C6D0892B49F024E030E0E20EF31EB4010D
:1006A0008FE390E0C7D0BBCF133629F0133779F032
:1006B0001335E9F40AC087010E5F1F4FB401F7013B
:1006C00080819181B7D07801AACFF1E0BF2AF701EC
:1006D0000081118103C0B40190E0ACD0F801B0FCFE
:1006E0008591B0FE81918F018823A9F787CF1436B9
:1006F00011F0193649F5B7FE0AC0F7016081718122
:100700008281938124E030E0E20EF31E0DC0F701F8
:10071000808191819C01B901882777FD8095982F70
:1007200042E050E0E40EF51E5FEEB52297FF09C0EF
:1007300090958095709561957F4F8F4F9F4FE0E426
:10074000BE2A2AE030E037C01037B1F0113730F45C
:100750001835C9F01F3609F05BC006C0153739F0EF
:10076000183709F055C00AC028E030E010C0FFEE8D
:10077000BF222AE030E00BC020E1B22A34E2B32AE3
:1007800020E130E004C044E0B42A20E132E0B7FECA
:1007900008C0F701608171818281938144E050E05B
:1007A00008C0F70180819181BC0180E090E042E0C7
:1007B00050E0E40EF51EA301C0D0A82EA6180B2D04
:1007C00010E0B6FE04C0B4018DE290E033D004FF27
:1007D00013C0FE01EA0DF11D8081803369F0B40180
:1007E00080E390E027D002FF07C000721070B401D0
:1007F000C801885A9F4F1ED0AA94F301EA0DF11D3B
:100800008081B40190E016D0AA2009F408CFF4CF7B
:10081000F40186819781E2E12B960C942B10FC0168
:100820000590061621F00020D9F7C00108953197F0
:10083000CF0108950F931F93CF93DF938C01EB01AA
:100840008B8181FF1BC082FF0DC02E813F818C8177
:100850009D812817390764F4E881F9810193F983B0
:10086000E88306C0E885F985802F0995892B31F446
:100870008E819F8101969F838E8302C00FEF1FEFB1
:10088000C801DF91CF911F910F910895A2E0B0E0D0
:10089000ECE4F4E00C941F10FE0137966191719125
:1008A000FA83E983E0914701F091480183818860F0
:1008B000838349815A8180914701909148018CDE60
:1008C000E0914701F09148012381277F2383E2E0F3
:1008D00022960C943B100F931F93CF93DF93EC0160
:1008E000E0914701F0914801838181FF1EC000E043
:1008F00010E00BC0FD0120853185BD01F90109958E
:10090000892B11F00FEF1FEF2196FE018491A0912A
:100910004701B0914801882369F7ED01E885F98521
:10092000BD018AE00995892B11F00FEF1FEFC80177
:10093000DF91CF911F910F910895FA01AA272830D6
:1009400051F1203181F1E8946F936E7F6E5F7F4F9C
:100950008F4F9F4FAF4FB1E03ED0B4E03CD0670F18
:10096000781F891F9A1FA11D680F791F8A1F911D6B
:10097000A11D6A0F711D811D911DA11D20D009F4BB
:1009800068943F912AE0269F11243019305D3193FD
:10099000DEF6CF010895462F4770405D4193B3E0E6
:1009A0000FD0C9F7F6CF462F4F70405D4A3318F08D
:1009B000495D31FD4052419302D0A9F7EACFB4E03E
:1009C000A6959795879577956795BA95C9F70097F6
:1009D0006105710508959B01AC010A2E0694579597
:1009E000479537952795BA95C9F7620F731F841FEE
:1009F000951FA01D0895FC012FB7F8948091340134
:100A000090913501918380832FBF08951F920F929B
:100A10000FB60F9211248F939F9380913401909180
:100A20003501019690933501809334019F918F9108
:100A30000F900FBE0F901F9018956CE071E080E151
:100A400097E2E2D1882391F01AD2992787FD9095F9
:100A50009F938F9383EF90E09F938F9317DF8CE0AA
:100A600091E0C9DF0F900F900F900F9008951F93A2
:100A700080E8809361001092610080E895E244D2A2
:100A80008EE091E0909348018093470186E880933F
:100A90007A00509880917E00816080937E0084B1BE
:100AA0008F7184B98DB18F7C8DB985B1806E85B918
:100AB0008EB180638EB98AB1806F8AB98BB18F7025
:100AC0008BB96A98729A8DE787BD92E094BD83E0F6
:100AD00085BD90936E0078948FE191E0FCDE84E018
:100AE0008093330110E0812F90E0FC01EE0FFF1F97
:100AF000E80FF91FE050FF4F8281882321F0019019
:100B0000F081E02D09951F5F143068F3EBCF23B11E
:100B10008CB190E0809590958073907095958795B5
:100B20002095207E282B822F24FF02C030E101C0B7
:100B300030E027FD306286FD306883FD306485FD3E
:100B400030EF8BB18F70382B3BB908951F936299AA
:100B500039C080912F01882309F039C060E371E02A
:100B600084E690E051D1882391F111E010932F0198
:100B700080912E01882331F460E087E895E066D10A
:100B800010932E0180914001882369F0A6D28BB189
:100B90008F7080618BB98DED90E09DDE61E08DE11D
:100BA00095E054D114C060E08DE195E04FD18BB158
:100BB0008F70806A8BB988EC90E08DDE60E083E016
:100BC000A3D205C080E391E016DF10922F011F91A0
:100BD00008958BE491E07FCE8BE691E07CCE8FE3AD
:100BE00093E079CE8EE993E076DE8BB18F70806AE8
:100BF0008BB9089580ED93E06ECE89EE93E06BCED5
:100C000082E094E068CEEF92FF920F931F93082F3B
:100C1000E62E80ED91E05FDE10E01F930F938EEBE8
:100C200091E09F938F9332DEFF24FF92EF928CEA44
:100C300091E09F938F932ADE8DB79EB708960FB6EB
:100C4000F8949EBF0FBE8DBF1F910F91FF90EF9044
:100C500008950F931F93082F88E592E03CDE10E083
:100C60001F930F9384E492E09F938F930FDE0F9076
:100C70000F900F900F901F910F9108952ED28CE23C
:100C800092E029DEFFCF87EB93E025DE8BB18F70FA
:100C9000806E8BB908958BE891E01DDE8BB18F706B
:100CA00080668BB908950F931F93082F82E892E016
:100CB00012DE10E01F930F938EE692E09F938F93C6
:100CC000E5DD8BB18F7080698BB9D8DF1F93182F4A
:100CD0008BED92E000DE80913201813019F484EDD9
:100CE00092E009C080913201823019F48FEC92E0D9
:100CF00002C08BEC92E09F938F938DEB92E09F93D9
:100D00008F93C4DD812F90E09F938F9389EA92E0C7
:100D10009F938F93BBDD8BB18F7080698BB9AEDFF2
:100D200082E293E0D8DD80913201813019F42DE127
:100D300033E009C080913201823019F426E133E0BA
:100D400002C022E133E08BB18F70806A8BB93F9390
:100D50002F9380E093E09F938F9398DD0F900F90F7
:100D60000F900F9008958BE593E0B5DD8BB18F70F8
:100D700080668BB908958DE793E0ADDD8BB18F7000
:100D8000806F8BB90895CF93DF93DA01E901823048
:100D900039F0833061F0813091F580E294E002C057
:100DA00082E394E08D939C9382E190E01DC06130DA
:100DB00071F0613028F0623081F0633001F519C0C4
:100DC00084E494E08D939C9384E090E00DC0E8E48B
:100DD000F4E0ED93FC93E49105C0E0E6F4E0ED93DC
:100DE000FC93E4918E2F90E09983888381E090E0DA
:100DF00008C0E6E7F4E0ED93FC93E491F3CF80E0E4
:100E000090E0DF91CF910895AC01FB018FB7F8948A
:100E100020913401309135018FBF80819181281755
:100E2000390728F0B901681B790BCB0104C0809504
:100E30009095820F931F8417950728F031832083A4
:100E400081E090E0089580E090E00895AC01309159
:100E5000330120E011C0822F90E0FC01EE0FFF1F54
:100E6000E80FF91FE050FF4F8081918184179507AB
:100E700011F4628308952F5F231769F7089580E4C2
:100E800080937C0080917A00806480937A008091C6
:100E90007A0086FDFCCF609178007091790022E99C
:100EA00034E0F901859194918617970718F48CEE38
:100EB0009FEF089540E050E0F901859194918617E5
:100EC000970730F4842F8551992787FD90950895D1
:100ED0004F5F5F4F2E5F3F4F4837510569F783E6FD
:100EE00090E00895982F8091C80085FFFCCF9093E3
:100EF000CE0080E090E008958091C80087FFFCCF8D
:100F00008091CE0090E008951092C80028E12093CF
:100F1000C90026E02093CA009C0140E050E060E256
:100F200071EA87E090E00E94ED0F2150304030934D
:100F3000CD002093CC00089580914101882309F0D1
:100F400051DE8091D8008C7F8093D8001092A00051
:100F50001092DE001092E2001092DA0010929F00D0
:100F60001092DF001092E10037D16FD18091DD0047
:100F70008B7F8093DD008091D70080618093D700C4
:100F80008091DD0081608093DD008091D8008F7BAF
:100F90008093D8008091E00081608093E000809190
:100FA000D7008E7F8093D7001092410110924001AC
:100FB00010924401109237010895BEDF8091D7004E
:100FC00086FF0AC08091DA008D7F8093DA008091DD
:100FD000D80082608093D800FFD037D18091D700AD
:100FE00086FF10C08091D80082608093D8008091E5
:100FF000D90081FF03C081E090E002C082E090E070
:101000008093320180913201813091F480913601D8
:1010100080FF04C08091E000846003C08091E00004
:101020008B7F8093E0008091D80081608093D8000E
:101030008091360181FD05C08091D7008160809349
:10104000D7008EE089BD09B400FEFDCF8091D800A5
:101050008F778093D8008091D80080688093D800E3
:101060008091D8008F7D8093D8008091DE008260CF
:101070008093DE00809132018130E9F440E360E04A
:1010800080E096D08091EE0087FF10C08091E00054
:101090008E7F8093E0008091E20081608093E20087
:1010A0008091E20088608093E20013C081E00EDE50
:1010B00080E090E0089580913201823051F4809177
:1010C000E0008E7F8093E0008091D8008064809360
:1010D000D80028D581E090E008952EDF10923201EB
:1010E00010923601A8EDB0E08C918F778C9319BCEB
:1010F000E7EDF0E080818E7F80838C918F7E8C93F2
:1011000080818F7B808308950F931F93182F062F64
:1011100080914001882309F0E0DF10933201112310
:1011200019F480E0D3DD41C01330D9F48091D700A9
:1011300080648093D7008091DA008D7F8093DA00FD
:101140008091D80082608093D8008091D90081FF7F
:1011500003C081E090E002C082E090E08093320121
:101160000DC0113021F48091D700806805C0123085
:1011700029F48091D7008F778093D700D3D488E06B
:1011800080931C018091D80080618093D8000093E7
:10119000360180913201813031F48091D800816034
:1011A0008093D80001C009DF78941F910F910895B2
:1011B00087708093E900EBEEF0E0808181608083AE
:1011C0006093EC00EDEEF0E080818270842B8083F0
:1011D000808182608083089540E050E0242F277052
:1011E0002093E9008091EB00982F91609093EB00A1
:1011F0008E7F8093EB002093E9001092F0008091A5
:10120000ED008D7F8093ED008091EB008E7F8093C9
:10121000EB004F5F5F4F4730510501F7089587702E
:101220008093A700E9EAF0E0808181608083609389
:10123000AA00EBEAF0E080818270842B8083109218
:10124000AD00808182608083089520E030E081E0FD
:1012500090E0022E02C0880F991F0A94E2F7809353
:10126000A8001092A800822F87708093A700109288
:10127000AE008091A6008F7E8093A6001092F500AC
:101280008091AB008D7F8093AB008091A9008E7F11
:101290008093A9002F5F3F4F27303105C1F6089595
:1012A0001F93CF93DF93CDB7DEB728970FB6F8948F
:1012B000DEBF0FBECDBF6091F100262F30E08091E0
:1012C000F1008530A9F0863050F4813009F48DC1E9
:1012D000813008F4F5C0833009F0D3C15DC1883096
:1012E00009F455C0893049F1863009F0CAC16AC095
:1012F000662309F0C6C19091F1008091E3009F73CD
:101300008078982B9093E3008091E800877F80930A
:10131000E8008091E8008E7F8093E8008091E800EB
:101320008F778093E8008091E80080FFFCCF809168
:10133000E30080688093E300A5C1662309F0A1C1A2
:101340001091F1009E01295F3F4FAE014F5F5F4F4B
:1013500081E019DD882309F495C1E981FA8171964C
:10136000E491E11708F48EC1109337018091E800F1
:10137000877F8093E8008091E8008E7F8093E8006B
:101380008091E8008F778093E80085DC7BC160382E
:1013900009F077C1809137018093F1008091E800D6
:1013A000877F8093E8008091E8008E7F8093E8003B
:1013B0008091E8008F778093E8008091E80082FFB9
:1013C000FCCF75C06091F1008091F1009E01295F12
:1013D0003F4FAE014D5F5F4FD6DC882309F452C109
:1013E0008091F10089838091F10089832091F1003F
:1013F0008091F10090E0582F442730E0422B532B8E
:101400008091E800877F8093E8002F81388524173A
:10141000350730F42F733070232B21F4A1E003C083
:1014200058874F83A0E06B817C812F81388520C055
:101430008091E80080FFFCCFFB0190E006C09F5F39
:1014400084918093F10031969A01BF0121153105F5
:1014500029F0A90141505040903489F78091E8006B
:101460008E7F8093E8008091E8008F778093E8007A
:101470002115310521F08091E80082FFD9CF8091BC
:10148000E80082FD14C0AA2371F08091E80080FF7B
:10149000FCCF8091E8008E7F8093E8008091E80087
:1014A0008F778093E8008091E80082FFFCCF8091E5
:1014B000E8008B7F8093E8008091E8008F7769C017
:1014C000A9014F7150704330510509F4DAC02076FC
:1014D00030702034310509F4D4C08091F100898343
:1014E0008091F10089838091F1004130510531F004
:1014F0004230510509F1452B19F0C4C090E025C0D8
:101500009E01295F3F4FAE014B5F5F4F60913701F6
:1015100082E039DC882309F4B5C0ED81FE8137967D
:10152000E4918E2F807C11F092E001C090E08E2F2C
:10153000807A59F0916009C087708093E90090919A
:10154000EB00909591701092E9008091E800877F00
:101550008093E8009093F1001092F1008091E800F0
:101560008E7F8093E8008091E8008F778093E80079
:101570008091E80082FFFCCF8091E8008B7F809310
:10158000E8008091E8008F778093E8008091E80080
:10159000877F8093E80076C0A9014F715070433077
:1015A000510509F46EC0207630702034310509F4FD
:1015B00068C09091F1008091F10089838091F100E1
:1015C0004230510509F05EC0992309F05BC0982FA5
:1015D00097709093E9008091EB0080FF4FC09923B2
:1015E000E1F18091EB00806236C0A9014F7150702B
:1015F0004330510509F445C0207630702034310560
:1016000009F43FC09091F1008091F10089838091AD
:10161000F10042305105B1F59923A1F5282F27702B
:101620002093E9008091EB0080FF28C02223A9F0DD
:101630008091EB008F7D8093EB0081E090E002C011
:10164000880F991F2A95E2F78093EA001092EA002A
:101650008091EB0088608093EB001092E90080910C
:10166000E800877F8093E8008091E8008E7F809378
:10167000E8008091E8008F778093E8001092E900FD
:1016800001C0C1DA8091E80083FF0AC08091EB00BD
:1016900080628093EB008091E800877F8093E80070
:1016A00028960FB6F894DEBF0FBECDBFDF91CF9165
:1016B0001F910895CF92DF92EF92FF920F931F93A5
:1016C000CF93DF937C01C0909E0000913E0110916A
:1016D0003F0180919E00816080939E0081E071D1E6
:1016E000882309F064C1E8E3F1E01092F50010925C
:1016F000A7008091AA008F7C8093AA008091A60009
:10170000877F8093A6008091A9008F7B8093A9009A
:1017100081918093AF0081E0E034F807C9F78091B0
:10172000A6008B7F8093A6008091A6008F77809380
:10173000A600C0E0D0E00CC081E043D1D82E8823C1
:1017400009F023C12196E3E0C93EDE0709F41BC17D
:101750008091A60083FFF0CF8091A600877F8093C1
:10176000A6008091A90080648093A90081E029D11E
:10177000D82E882309F009C18091380187FF73C0F2
:101780008091A90080628093A9008091AA008F7C3B
:1017900080618093AA003FC08091A9008F7B8093D5
:1017A000A900C0E0D0E00BC081E00BD1882309F094
:1017B000CFC02196F3E0C93EDF0709F4E4C0809171
:1017C000A60080FFF1CF8091F6009091F700892B61
:1017D00051F400E010E007C08091AF00F701819361
:1017E0007F01015010408091F6009091F700892B05
:1017F00019F00115110581F78091A900806480938B
:10180000A9008091A6008E7F8093A6008091A600FB
:101810008F778093A600E114F10421F001151105E2
:1018200009F0BACF8091AA008F7C80628093AA00D1
:101830008091A9008F7B8093A900C0E0D0E00BC00D
:1018400081E0BFD0882309F083C02196F3E0C93E30
:10185000DF0709F498C08091A60082FFF1CF809144
:10186000A6008B7F88C08091AA008F7C80628093C5
:10187000AA0050C08091A9008F7B8093A90080911D
:101880001C01282F30E02017310728F4F701A701A9
:10189000420F531F11C0F701E80103C081918093EB
:1018A000AF0021978FEFCF3FD807C1F7E00EF11EB1
:1018B0000AC081918093AF00E417F507D1F7E801E2
:1018C000C21BD30B7F018091A6008B7F8093A60063
:1018D0008091A6008F778093A60000E010E00BC0F7
:1018E00081E06FD08823A1F50F5F1F4FE3E0093E31
:1018F0001E0709F448C08091A60082FFF1CF8091B5
:10190000A6008B7F8093A6008091A6008F7780939E
:10191000A6008E01E114F10421F00115110509F072
:10192000A9CF8091A90080648093A9008091AA002A
:101930008F7C80618093AA008091A9008F7B809327
:10194000A900C0E0D0E00BC081E03BD0882311F0BB
:10195000D82E1BC02196F3E0C93EDF07A1F080918D
:10196000A60080FFF1CF8091A90080648093A90038
:101970008091A6008E7F8093A6008091A6008F772D
:101980008093A60002C014E0D12E8091A90080644B
:101990008093A900C0FC05C080919E008E7F80933B
:1019A0009E0081E08093A8001092A8008D2D90E009
:1019B000DF91CF911F910F91FF90EF90DF90CF902B
:1019C0000895982F20919E0080919F008F7D809395
:1019D0009F0080919E00816080939E0028C080912E
:1019E0009F0085FF06C080919F008F7D80939F00A0
:1019F0009150809141018823E9F08091320181303A
:101A0000C9F08091A60084FF07C08091A6008F7E58
:101A10008093A60092E00FC08091A60081FF07C0CE
:101A20008091A6008D7F8093A60093E004C0992347
:101A3000B1F601C091E020FD05C080919E008E7F2F
:101A400080939E00892F90E008951F9310919E002F
:101A50008091A0008D7F8093A00084E1B2DF80910F
:101A60009E00826080939E0080919E0081FDFCCF4D
:101A700080919F008F7D80939F0080919E00816068
:101A800080939E002AE080919F0085FF06C0809190
:101A90009F008D7F80939F0006C080ED97E00197A7
:101AA000F1F7215081F710FD05C080919E008E7FD7
:101AB00080939E008091A00082608093A0001F917F
:101AC00008958930910518F480E090E008958131FF
:101AD000910518F480E190E008958132910518F4A1
:101AE00080E290E008958134910518F480E390E05D
:101AF00008958138910518F480E490E008958150AC
:101B0000914018F480E590E0089580E690E0089513
:101B100080914001882329F0E0914201F091430136
:101B20000995089580913201882389F080913201CE
:101B3000813019F48AEC9EE002C08CEA9DE090931B
:101B400043018093420181E08093400102C01092E2
:101B500040011092410108951F93CF93DF93CDB7B9
:101B6000DEB768970FB6F894DEBF0FBECDBF1091F9
:101B70004401113009F450C0113038F0123009F42A
:101B800089C0133009F0FCC092C08091A0008D7F05
:101B90008093A0008091DD0081608093DD008091C2
:101BA000D8008F7E8093D8008091DD008460809380
:101BB000DD008091D7008F7E8093D7006F9A779A4F
:101BC0008091DF0080FF1DC08091DF008E7F8093B9
:101BD000DF0077988091D80080618093D800809151
:101BE000DD008B7F8093DD008091D7008061809342
:101BF000D7008091DD0082608093DD0081E08093DA
:101C000044018091DF0082FFBBC08091DF008B7FA9
:101C10008093DF007798B4C080919F0080FF28C038
:101C200080919F008E7F80939F0080919F008D7F89
:101C300080939F008091A00082608093A0000E940A
:101C4000EC05109341011FD880919E008160809324
:101C50009E00FBDA84E6B5DE882309F048C0F5DE95
:101C600084E6AFDE882309F042C082E0809344011D
:101C70008091DF0082FF84C08091DF008B7F8093A2
:101C8000DF0081E00E9429068091DD008160809361
:101C9000DD006DC084E695DE882349F588E090E09C
:101CA00010DF482F60E080E0BADA83E067C0DE0131
:101CB0001196E5E2F1E088E001900D928150E1F7A4
:101CC000A8E3B1E0FE01319688E001900D928150C9
:101CD000E1F7CE010996EEDC882309F03EC0888941
:101CE00080931C01B2DE88EC6CDE882311F080E06A
:101CF00035C08091A9008E7F8093A9008091AB00B0
:101D00008D7F8093AB0081E08093A8001092A800A3
:101D100080911C0190E0D5DE482F60E080E07FDA02
:101D20008091AC0087FD02C083E018C0DE015196AF
:101D3000EDE1F1E088E001900D928150E1F7A8E338
:101D4000B1E0FE01719688E001900D928150E1F7BB
:101D500080E090E0AFDC882369F082E00E942906F1
:101D60008091DD0081608093DD000E94E905109282
:101D7000440106C081E08093A10084E08093440187
:101D800068960FB6F894DEBF0FBECDBFDF91CF913E
:101D90001F91089580914101882339F01092E90044
:101DA0008091E80083FF01C07BCA08951F920F92C3
:101DB0000FB60F9211242F933F934F935F936F931E
:101DC0007F938F939F93AF93BF93EF93FF938091F4
:101DD000DA0080FF33C08091D80080FF2FC080914F
:101DE000DA008E7F8093DA000E9400068091D9008D
:101DF00080FF0FC00E94FD05809140018823F1F013
:101E0000DCD88823D9F081E0809341010E94430609
:101E100015C00E94F2058091E00081608093E0008F
:101E20008091D7008E7F8093D7000E94FA05809121
:101E3000DA008E7F8093DA00109241018091E100F8
:101E400080FF1BC08091E20080FF17C08091E100FD
:101E50008E7F8093E1008091D80080628093D800CB
:101E600019BC8091E2008E7F8093E2008091E200B5
:101E700080618093E2000E94BB068091E10084FFB4
:101E80001FC08091E20084FF1BC08091E1008F7E23
:101E90008093E1008091D8008F7D8093D8008EE000
:101EA00089BD09B400FEFDCF8091E2008F7E809352
:101EB000E2008091E20081608093E2000E94B3061C
:101EC0008091E10083FF20C08091E20083FF1CC06D
:101ED0008091E100877F8093E1001092370180912B
:101EE000E1008E7F8093E1008091E2008E7F8093FD
:101EF000E2008091E20080618093E20040E360E0D4
:101F000080E056D90E94EF0580919F0081FF11C0AB
:101F10008091A00081FF0DC080919F008D7F8093F4
:101F20009F00109241010E94E9050E94F205109263
:101F300044018091DF0081FF13C08091DE0081FFAA
:101F40000FC08091DF008D7F8093DF00779880E065
:101F50000E9453060E94E90510924101109244012B
:101F60008091DA0081FF28C08091D80081FF24C0D1
:101F70008091DA008D7F8093DA008091410188237F
:101F800049F080913201823019F40E94E90502C0C3
:101F90000E94F2050E9490068091DD008B7F809365
:101FA000DD008091D70080618093D7008091D800B8
:101FB00080618093D80001D8FF91EF91BF91AF91DC
:101FC0009F918F917F916F915F914F913F912F9151
:101FD0000F900FBE0F901F901895A1E21A2EAA1B0A
:101FE000BB1BFD010DC0AA1FBB1FEE1FFF1FA217C9
:101FF000B307E407F50720F0A21BB30BE40BF50BC6
:10200000661F771F881F991F1A9469F7609570954E
:10201000809590959B01AC01BD01CF0108952F9251
:102020003F924F925F926F927F928F929F92AF9268
:10203000BF92CF92DF92EF92FF920F931F93CF93B5
:10204000DF93CDB7DEB7CA1BDB0B0FB6F894DEBF4C
:102050000FBECDBF09942A88398848885F846E8472
:102060007D848C849B84AA84B984C884DF80EE80BC
:10207000FD800C811B81AA81B981CE0FD11D0FB6C5
:0E208000F894DEBF0FBECDBFED010895FFCF77
:10208E00870501A605011D0501880D011027000019
:10209E0000030000000072077C0700000800050125
:0E20AE00000000000080060001000008000095
:00000001FF
