:100000001BC1000037C1000035C1000033C1000032
:1000100031C100002FC100002DC100002BC1000024
:1000200029C1000027C100000C94630C23C100000B
:1000300021C100001FC100001DC100001BC1000044
:1000400019C1000017C1000015C1000013C1000054
:1000500011C100000FC100000DC100000BC1000064
:1000600009C1000007C1000005C1000003C1000074
:1000700001C10000FFC00000FDC00000FBC0000087
:10008000F9C00000F7C00000F5C00000F3C0000098
:10009000F1C00000EFC00000402823294D795553DE
:1000A00042204D5320486F737420417070004028E7
:1000B000232932323A31323A303700402823294A54
:1000C000616E2032342032303038001B5B34316DA9
:1000D0004572726F722072656164696E672064692F
:1000E000736B2E0D0A00436F6E74726F6C20657215
:1000F000726F722E00436F6E74726F6C2065727235
:100100006F722E004D6173732053746F7261676557
:10011000204469736B20456E756D6572617465640A
:100120002E0D0A00436F6E74726F6C204572726FF1
:10013000722E0D0A00496E76616C69642044657602
:1001400069636520547970652E0D0A0047657474E3
:10015000696E6720436F6E66696720446174612E23
:100160000D0A00436F6E74726F6C206572726F724D
:100170002E00202D2D20496E20537461746520259A
:10018000640D0A00202D2D204572726F7220436F7E
:1001900064652025640D0A001B5B34316D4465766F
:1001A00020456E756D204572726F720D0A00202D0C
:1001B0002D204572726F7220436F64652025640D97
:1001C0000A001B5B34316D486F7374204D6F64659A
:1001D000204572726F720D0A000D0A4465766963DC
:1001E0006520556E61747461636865642E0D0A0044
:1001F0004465766963652041747461636865642E43
:100200000D0A001B5B306D1B5B34376D1B5B376D5C
:100210001B5B324A4D61737353746F726520486F74
:1002200073742044656D6F2072756E6E696E672EF3
:100230000D0A1B5B32376D0011241FBECFEFD0E2D9
:10024000DEBFCDBF11E0A0E0B1E0E0E1FAE100E007
:100250000BBF02C007900D92AA34B107D9F711E085
:10026000AAE4B1E001C01D92A936B107E1F77AD442
:100270000C94070DC5CEA2E0B0E0E1E4F1E00C94EF
:10028000E00CFE01379661917191FA83E983E09168
:100290006501F091660183818860838349815A8179
:1002A00080916501909166013DD0E0916501F091EA
:1002B00066012381277F2383E2E022960C94FC0CC5
:1002C0000F931F93CF93DF93EC01E0916501F091C1
:1002D0006601838181FF1EC000E010E00BC0FD01BC
:1002E00020853185BD01F9010995892B11F00FEFAA
:1002F0001FEF2196FE018491A0916501B0916601E6
:10030000882369F7ED01E885F985BD018AE0099543
:10031000892B11F00FEF1FEFC801DF91CF911F91D3
:100320000F9108952F923F925F926F927F928F92DA
:100330009F92AF92BF92CF92DF92EF92FF920F9374
:100340001F93CF93DF93CDB7DEB72B970FB6F894FB
:10035000DEBF0FBECDBF3C014B016A01FC0117821D
:100360001682838181FD03C08FEF9FEFAEC11E0116
:100370000894211C311CF3013381F40133FD859174
:1003800033FF81914F01882309F49CC1853239F4F0
:1003900033FD859133FF81914F01853221F4B30103
:1003A00090E0C1D1E8CF982FAA2410E05524103254
:1003B000B0F49B3269F09C3228F4903251F09332C1
:1003C00071F40BC09D3239F0903349F411602AC0AA
:1003D0001260146027C0186025C0106123C017FD8B
:1003E0002AC0292F20532A3088F416FF07C08AE03C
:1003F000A89EC0011124A22EA80E14C08AE0589E07
:10040000C0011124522E580E10620CC09E3221F4ED
:1004100016FD58C1106406C09C3611F4106802C065
:10042000983649F4F40133FD959133FF91914F01D2
:10043000992309F0BCCF892F8554833018F080525E
:10044000833038F424E030E0C20ED31E8FE389837A
:100450000FC0933631F0933781F0933509F052C0D5
:100460001FC0F6018081898322E030E0C20ED31ED6
:10047000710181E0A82EB12C11C0F601E080F1805D
:1004800016FD03C06FEF7FEF02C06A2D70E022E01F
:1004900030E0C20ED31EC7013BD15C011F7712C0F2
:1004A000F601E080F18016FD03C06FEF7FEF02C020
:1004B0006A2D70E022E030E0C20ED31EC7011DD1CC
:1004C0005C01106813FF06C019C0B30180E290E020
:1004D0002AD15A94852D90E0A816B906B0F30EC023
:1004E000F70117FD859117FF81917F01B30190E01E
:1004F0001AD151105A940894A108B108A114B1045A
:1005000079F7DDC0943611F0993661F517FF0AC00E
:10051000F601608171818281938124E030E0C20E16
:10052000D31E0DC0F601808191819C01B9018827FD
:1005300077FD8095982F42E050E0C40ED51E012F24
:100540000F7697FF08C090958095709561957F4FC5
:100550008F4F9F4F00682AE030E0A10110D1B82EE4
:10056000B2183CC0953721F41F7E2AE030E01CC051
:10057000197F9F3661F0903720F4983509F0A2C0BA
:100580000FC0903739F0983709F09CC004C028E0BC
:1005900030E00AC0106114FD146020E130E004C0B6
:1005A00014FD166020E132E017FF08C0F6016081FB
:1005B00071818281938144E050E008C0F60180811E
:1005C0009181BC0180E090E042E050E0C40ED51E75
:1005D000A101D5D0B82EB218012F0F7706FF09C0A0
:1005E0000E7FBA1430F404FF06C002FD04C00F7E73
:1005F00002C01B2D01C01A2D04FF0CC0FE01EB0D23
:10060000F11D8081803311F4097E08C01F5F02FF55
:1006100005C003C0802F867809F01F5FE02E03FD20
:1006200013C000FF0EC0151510F0AB2C0AC0AB2C88
:10063000A50CA11A152D05C0B30180E290E073D07E
:100640001F5F1515C8F304C0151510F4511A01C029
:100650005524E4FE0FC0B30180E390E064D0E2FED5
:100660001CC0E1FE03C088E590E002C088E790E08E
:10067000B3010CC08E2D867881F0E1FE02C08BE2C2
:1006800001C080E207FD8DE2B30190E04CD005C0CF
:10069000B30180E390E047D0AA94BA14C8F3BA94A7
:1006A000F101EB0DF11D8081B30190E03CD0BB2046
:1006B00031F0F5CFB30180E290E035D05A94552067
:1006C000C9F759CEF301868197812B960FB6F8941E
:1006D000DEBF0FBECDBFDF91CF911F910F91FF9075
:1006E000EF90DF90CF90BF90AF909F908F907F90D2
:1006F0006F905F903F902F900895FC01059061509E
:1007000070400110D8F7809590958E0F9F1F089527
:10071000FC016150704001900110D8F780959095D0
:100720008E0F9F1F08950F931F93CF93DF938C011C
:10073000EB018B8181FF1BC082FF0DC02E813F81A9
:100740008C819D812817390764F4E881F981019330
:10075000F983E88306C0E885F985802F0995892B00
:1007600031F48E819F8101969F838E8302C00FEFAB
:100770001FEFC801DF91CF911F910F910895FA01EA
:10078000AA27283051F1203181F1E8946F936E7FD0
:100790006E5F7F4F8F4F9F4FAF4FB1E03ED0B4E0C1
:1007A0003CD0670F781F891F9A1FA11D680F791F02
:1007B0008A1F911DA11D6A0F711D811D911DA11D13
:1007C00020D009F468943F912AE0269F1124301923
:1007D000305D3193DEF6CF010895462F4770405DBE
:1007E0004193B3E00FD0C9F7F6CF462F4F70405D6D
:1007F0004A3318F0495D31FD4052419302D0A9F7C8
:10080000EACFB4E0A6959795879577956795BA95C1
:10081000C9F700976105710508959B01AC010A2E87
:1008200006945795479537952795BA95C9F7620F5E
:10083000731F841F951FA01D08958930910518F41A
:1008400080E090E008958131910518F480E190E016
:1008500008958132910518F480E290E00895813482
:10086000910518F480E390E008958138910518F41B
:1008700080E490E008958150914018F480E590E084
:10088000089580E690E008958F929F92AF92BF9274
:10089000CF92DF92EF92FF920F931F93CF93DF934C
:1008A000CDB7DEB76F970FB6F894DEBF0FBECDBFE2
:1008B0005901A42FB0E0BA2FAA27BB0FC0900601A0
:1008C000D0900701E0900801F09009014E010894D2
:1008D000811C911C2FE1F40111922A95E9F705E59D
:1008E00013E522E433E409831A832B833C83CD820E
:1008F000DE82EF82F8868D0120E030E009871A87DA
:100900002B873C8720E82D872AE02F8728E2288B39
:10091000092F1127222733270A8B8C0122273327FF
:100920000B8B072F182F292F33270C8B6D8B488F9C
:10093000F4010894C11CD11CE11CF11CC0920601F9
:10094000D0920701E0920801F092090182E08093C1
:10095000A7008091A9008F7B8093A9009E01205E53
:100960003F4F81918093AF00E217F307D1F7809159
:10097000A6008F778093A6008091A9008064809361
:10098000A90081E08093A7008091A9008F7B8093CC
:10099000A90012C082E08093A7008091A60081FD8B
:1009A0003EC081E08093A7008091A60081FD37C002
:1009B00080916101882399F18091A60085FFEACF9B
:1009C00019C08091AF00F50181935F01119780916B
:1009D0006101882321F18091F6009091F700892B25
:1009E00049F48091A6008F778093A6008091A6009D
:1009F00085FFFCCF109729F78091A60085FFFCCFDB
:100A00008091A6008F778093A6008091A9008064D2
:100A10008093A90081E00AD481E090E002C080E0E8
:100A200090E06F960FB6F894DEBF0FBECDBFDF919A
:100A3000CF911F910F91FF90EF90DF90CF90BF90DB
:100A4000AF909F908F900895CF92DF92EF92FF9298
:100A50000F931F93CF93DF93CDB7DEB728970FB6D1
:100A6000F894DEBF0FBECDBF7C01CDB6DEB6DE0191
:100A70001196EAE0F1E088E001900D928150E1F7F3
:100A8000A8E5B1E0FE01319688E001900D92815019
:100A9000E1F761157105E1F48DB79EB709970FB6BF
:100AA000F8949EBF0FBE8DBF0DB71EB70F5F1F4FCF
:100AB00089E090E090935F0180935E01C80136D495
:100AC000282FF80182819381F701918380830AC0E6
:100AD000F7018081918190935F0180935E01CB014A
:100AE00025D4282F822F90E00FB6F894DEBE0FBEDB
:100AF000CDBE28960FB6F894DEBF0FBECDBFDF91F6
:100B0000CF911F910F91FF90EF90DF90CF900895BC
:100B100080EF91E0D5DB8BB18F708BB908950F9387
:100B20001F93082F88E991E0CBDB10E01F930F9310
:100B300084E891E09F938F939EDB8091620190E027
:100B40009F938F9382E791E09F938F9394DB8DB770
:100B50009EB708960FB6F8949EBF0FBE8DBF1F912B
:100B60000F9108951F9380E88093610010926100B7
:100B700080E895E251D28AE291E0909366018093F9
:100B800065018AB1806F8AB98BB18F708BB98BB1D7
:100B90008F7080698BB960E082E0D9D283E092E007
:100BA0008FDB82E08093540110E0812F90E0FC0104
:100BB000EE0FFF1FE80FF91FE050FF4F82818823DF
:100BC00021F00190F081E02D09951F5F123068F34C
:100BD000EBCF0F931F93082FA6D282EC91E070DB2E
:100BE00010E01F930F938EEA91E09F938F9343DB66
:100BF0008BB18F7080698BB90F900F900F900F9011
:100C0000FFCF89ED91E05CDB8BB18F7080698BB990
:100C10000895CF92DF92EF92FF920F931F93CF939D
:100C2000DF93CDB7DEB722970FB6F894DEBF0FBEC5
:100C3000CDBFCDB6DEB660E070E07E010894E11C69
:100C4000F11CC70101DF882309F0ADC089819A81B9
:100C500022E08130920718F081E090E0A9C0EDB762
:100C6000FEB7E81BF90B0FB6F894FEBF0FBEEDBF41
:100C70000DB71EB70F5F1F4FB801C701E5DEF801C2
:100C80008181823009F08FC029813A811FC0F8012B
:100C9000808190E0080F191F281B390BF801818112
:100CA000843019F02115310591F72115310509F42A
:100CB0007DC0F8018581883049F48681863031F421
:100CC0008781803519F43A83298305C021153105C0
:100CD00049F71A82198249815A814115510509F44F
:100CE00065C060914B0170914C01E0905201F09011
:100CF000530130914E01A09151013AC0F801808119
:100D000090E0080F191F481B590BF801B181B5304D
:100D100069F48381823051F422818481958127FD99
:100D200003C0BC01322F02C07C01A22FAA2389F08C
:100D3000332379F070934C0160934B01F09253018F
:100D4000E092520130934E01A09351015A8349839E
:100D500020C0B43069F470934C0160934B01F09261
:100D60005301E092520130934E01A093510115C0FE
:100D70004115510519F670934C0160934B01F092A7
:100D80005301E092520130934E01A09351011A8217
:100D9000198289819A81892B19F485E090E008C035
:100DA00086E090E005C080E090E002C082E090E044
:100DB0000FB6F894DEBE0FBECDBE22960FB6F894E5
:100DC000DEBF0FBECDBFDF91CF911F910F91FF907E
:100DD000EF90DF90CF9008950F931F93CF93DF9301
:100DE000CDB7DEB7C851D2400FB6F894DEBF0FBE04
:100DF000CDBF80916101882309F4F0C08091620128
:100E0000853071F1863009F46FC0843009F0E6C096
:100E1000DE011196E2E2F1E088E001900D9281504E
:100E2000E1F7A8E5B1E0FE01319688E001900D926E
:100E30008150E1F780E090E079D2882369F083E681
:100E400091E03EDA8BB18F7080618BB98091610146
:100E5000882309F4C3C0FACF85E080936201BEC045
:100E60008CE491E02DDAD5DE182F863091F08230B7
:100E700019F485E391E002C084E291E021DA8BB1BC
:100E80008F7080618BB980916101882309F4A6C0BD
:100E9000FACF8091520190915301CFDC8460609130
:100EA000510167706069482F81E07FD180914B01CB
:100EB00090914C01C2DC846060914E016770606A61
:100EC000482F82E072D181E08093A7008091A90031
:100ED00080628093A90082E08093A70084E091E083
:100EE000EFD9109362017AC08BB18F70806C8BB98F
:100EF000DE011996EAE1F1E088E001900D9281505F
:100F0000E1F7A8E5B1E0FE01399688E001900D9285
:100F10008150E1F780E090E009D2882369F085EF05
:100F200090E0CED98BB18F7080618BB980916101D7
:100F3000882309F453C0FACFDE015196E2E1F1E0D3
:100F400088E001900D928150E1F7A8E5B1E0FE0143
:100F5000719688E001900D928150E1F78DE491E067
:100F6000E5D1882361F086EE90E0AAD98BB18F702D
:100F700080618BB980916101882381F1FBCF8E0163
:100F8000075E1F4F980141E060E070E080E090E074
:100F90007BDC882361F48BEC90E092D98BB18F706D
:100FA00080618BB9809161018823C1F0FBCFF8018A
:100FB0009E01275E3D4F90818091C80085FFFCCF48
:100FC0009093CE003196E217F307A9F78BB18F709B
:100FD00080648BB9809161018823E1F7C85EDD4FA1
:100FE0000FB6F894DEBF0FBECDBFDF91CF911F913A
:100FF0000F910895982F8091C80085FFFCCF9093A2
:10100000CE0080E090E008958091C80087FFFCCF7B
:101010008091CE0090E008951092C80028E12093BE
:10102000C90026E02093CA009C0140E050E060E245
:1010300071EA87E090E092D4215030403093CD00A7
:101040002093CC00089580916101882309F085D414
:101050008091D8008C7F8093D8001092A0001092CD
:10106000DE001092DA0010929F001092DF00B3D0E1
:101070008091DD008B7F8093DD008091D7008061BF
:101080008093D7008091DD0081608093DD008091A6
:10109000D8008F7B8093D8008091E000816080939E
:1010A000E0008091D7008E7F8093D700109261017D
:1010B00010926001109262010895C5DF8CD080917A
:1010C000570181FD05C08091D70081608093D700D2
:1010D0008EE089BD09B400FEFDCF8091D8008F77E6
:1010E0008093D8008091D80080688093D800809148
:1010F000D8008F7D8093D8008091DE00826080933D
:10110000DE008091E0008E7F8093E0008091D80027
:1011100080648093D80081E0809360011092610127
:1011200081E090E008958FDF10924A0110925701FC
:10113000A8EDB0E08C918F778C9319BCE7EDF0E0CF
:1011400080818E7F80838C918F7E8C9308950F9306
:101150001F93182F062F80916001882309F0E3DF89
:1011600010934A01112319F480E0F7D31BC0123009
:1011700019F081E0F2D305C08091D7008F7780937A
:10118000D70081E0809360011092610188E0809334
:1011900038018091D80080618093D8000093570176
:1011A0008CDF78941F910F91089587708093A7002A
:1011B000E9EAF0E08081816080836093AA00EBEA35
:1011C000F0E080818270842B80831092AD0080815A
:1011D00082608083089520E030E081E090E0022E7C
:1011E00002C0880F991F0A94E2F78093A80010921A
:1011F000A800822F87708093A7001092AE00809184
:10120000A6008F7E8093A6001092F5008091AB001F
:101210008D7F8093AB008091A9008E7F8093A90081
:101220002F5F3F4F27303105C1F60895982F209149
:101230009E0080919F008F7D80939F0080919E00F3
:10124000816080939E0028C080919F0085FF06C02A
:1012500080919F008F7D80939F00915080916101CC
:101260008823E9F080914A018130C9F08091A6007D
:1012700084FF07C08091A6008F7E8093A60092E035
:101280000FC08091A60081FF07C08091A6008D7FCE
:101290008093A60093E004C09923B1F601C091E0C9
:1012A00020FD05C080919E008E7F80939E00892F37
:1012B00090E008951F9310919E008091A0008D7F73
:1012C0008093A00084E1B2DF80919E0082608093D1
:1012D0009E0080919E0081FDFCCF80919F008F7DBC
:1012E00080939F0080919E00816080939E002AE001
:1012F00080919F0085FF06C080919F008D7F809325
:101300009F0006C080ED97E00197F1F7215081F72B
:1013100010FD05C080919E008E7F80939E0080917D
:10132000A00082608093A0001F910895CF92DF9269
:10133000EF92FF920F931F93CF93DF937C01C090A6
:101340009E0000915E0110915F0180919E0081607E
:1013500080939E0081E06ADF882309F064C1E8E59C
:10136000F1E01092F5001092A7008091AA008F7C06
:101370008093AA008091A600877F8093A600809129
:10138000A9008F7B8093A90081918093AF0081E0B9
:10139000E036F807C9F78091A6008B7F8093A600FE
:1013A0008091A6008F778093A600C0E0D0E00CC0AB
:1013B00081E03CDFD82E882309F023C12196E3E0A9
:1013C000C93EDE0709F41BC18091A60083FFF0CF60
:1013D0008091A600877F8093A6008091A9008064F9
:1013E0008093A90081E022DFD82E882309F009C16B
:1013F0008091580187FF73C08091A900806280931B
:10140000A9008091AA008F7C80618093AA003FC0D0
:101410008091A9008F7B8093A900C0E0D0E00BC031
:1014200081E004DF882309F0CFC02196F3E0C93EB4
:10143000DF0709F4E4C08091A60080FFF1CF80911E
:10144000F6009091F700892B51F400E010E007C0FE
:101450008091AF00F70181937F010150104080918E
:10146000F6009091F700892B19F00115110581F70D
:101470008091A90080648093A9008091A6008E7F4E
:101480008093A6008091A6008F778093A600E11438
:10149000F10421F00115110509F0BACF8091AA00DD
:1014A0008F7C80628093AA008091A9008F7B8093BB
:1014B000A900C0E0D0E00BC081E0B8DE882309F0CD
:1014C00083C02196F3E0C93EDF0709F498C08091FC
:1014D000A60082FFF1CF8091A6008B7F88C080910B
:1014E000AA008F7C80628093AA0050C08091A900DE
:1014F0008F7B8093A90080913801282F30E020173E
:10150000310728F4F701A701420F531F11C0F7015B
:10151000E80103C081918093AF0021978FEFCF3F07
:10152000D807C1F7E00EF11E0AC081918093AF0089
:10153000E417F507D1F7E801C21BD30B7F018091B7
:10154000A6008B7F8093A6008091A6008F77809362
:10155000A60000E010E00BC081E068DE8823A1F562
:101560000F5F1F4FE3E0093E1E0709F448C080915A
:10157000A60082FFF1CF8091A6008B7F8093A6000A
:101580008091A6008F778093A6008E01E114F1046C
:1015900021F00115110509F0A9CF8091A9008064FF
:1015A0008093A9008091AA008F7C80618093AA001B
:1015B0008091A9008F7B8093A900C0E0D0E00BC090
:1015C00081E034DE882311F0D82E1BC02196F3E091
:1015D000C93EDF07A1F08091A60080FFF1CF809186
:1015E000A90080648093A9008091A6008E7F8093DB
:1015F000A6008091A6008F778093A60002C064E0C9
:10160000D62E8091A90080648093A900C0FC05C0FB
:1016100080919E008E7F80939E0081E08093A80041
:101620001092A8008D2D90E0DF91CF911F910F9126
:10163000FF90EF90DF90CF9008958930910518F4D6
:1016400080E090E008958131910518F480E190E008
:1016500008958132910518F480E290E00895813474
:10166000910518F480E390E008958138910518F40D
:1016700080E490E008958150914018F480E590E076
:10168000089580E690E008951F93CF93DF93CDB740
:10169000DEB768970FB6F894DEBF0FBECDBF80915E
:1016A0006001882309F405C110916201113009F429
:1016B00050C0113038F0123009F487C0133009F0EF
:1016C000F8C090C08091A0008D7F8093A000809191
:1016D000DD0081608093DD008091D8008F7E809353
:1016E000D8008091DD0084608093DD008091D70078
:1016F0008F7E8093D7006F9A779A8091DF0080FF6A
:101700001DC08091DF008E7F8093DF0077988091ED
:10171000D80080618093D8008091DD008B7F80931A
:10172000DD008091D70080618093D7008091DD003B
:1017300082608093DD0081E0809362018091DF0010
:1017400082FFB7C08091DF008B7F8093DF007798A6
:10175000B0C080919F0080FF27C080919F008E7F46
:1017600080939F0080919F008D7F80939F00809148
:10177000A00082608093A000CBD910936101EDD0CE
:1017800080919E00816080939E0025DD84E64EDD81
:10179000882309F047C08EDD84E648DD882309F000
:1017A00041C082E0809362018091DF0082FF81C0AE
:1017B0008091DF008B7F8093DF0081E0B0D9809142
:1017C000DD0081608093DD006BC084E62FDD88231F
:1017D00049F588E090E031DF482F60E080E0E5DC0B
:1017E00083E065C0DE011996E1E4F1E088E0019054
:1017F0000D928150E1F7A8E5B1E0FE01399688E04D
:1018000001900D928150E1F7CE0101968FDD882382
:1018100009F03EC08885809338014CDD88EC06DDF8
:10182000882311F080E035C08091A9008E7F8093DD
:10183000A9008091AB008D7F8093AB0081E0809305
:10184000A8001092A8008091380190E0F6DE482FA1
:1018500060E080E0AADC8091AC0087FD02C083E0FC
:1018600018C0DE015196E9E3F1E088E001900D92A5
:101870008150E1F7A8E5B1E0FE01719688E00190A2
:101880000D928150E1F780E090E050DD882359F01F
:1018900082E045D98091DD0081608093DD00B1D97F
:1018A0001092620106C081E08093A10084E08093E1
:1018B000620168960FB6F894DEBF0FBECDBFDF9110
:1018C000CF911F9108951F920F920FB60F9211247E
:1018D0002F933F934F935F936F937F938F939F9338
:1018E000AF93BF93EF93FF9380919F0081FF0FC051
:1018F0008091A00081FF0BC080919F008D7F80931D
:101900009F00109261017DD928D0109262018091D0
:10191000DF0081FF11C08091DE0081FF0DC080914A
:10192000DF008D7F8093DF00779880E052D969D9FE
:101930001092610110926201FF91EF91BF91AF91FE
:101940009F918F917F916F915F914F913F912F91D7
:101950000F900FBE0F901F9018950895A1E21A2EB8
:10196000AA1BBB1BFD010DC0AA1FBB1FEE1FFF1F43
:10197000A217B307E407F50720F0A21BB30BE40B93
:10198000F50B661F771F881F991F1A9469F76095DA
:101990007095809590959B01AC01BD01CF01089594
:1019A0002F923F924F925F926F927F928F929F926F
:1019B000AF92BF92CF92DF92EF92FF920F931F935D
:1019C000CF93DF93CDB7DEB7CA1BDB0B0FB6F8940E
:1019D000DEBF0FBECDBF09942A88398848885F844E
:1019E0006E847D848C849B84AA84B984C884DF80BF
:1019F000EE80FD800C811B81AA81B981CE0FD11DA3
:101A00000FB6F894DEBF0FBECDBFED010895FFCF36
:101A1000440B01EC060101000000800600020000FA
:101A20000000A1FE00000000010021FF00000000F6
:101A30000000000901000000000000000003000099
:101A40000000FA070408000008000501000000007B
:0A1A500000800600010000080000FD
:00000001FF
