:10000000ACC00000C7C00000C5C00000C3C00000F5
:10001000C1C00000BFC00000BDC00000BBC00000E8
:10002000B9C00000B7C000009AC40000B3C000000F
:10003000B1C00000AFC00000ADC00000ABC0000008
:10004000A9C00000A7C00000A5C00000A3C0000018
:10005000A1C000009FC000009DC000009BC0000028
:1000600099C0000097C0000095C0000093C0000038
:1000700091C000008FC000008DC000008BC0000048
:1000800089C0000087C0000085C0000083C0000058
:1000900081C000007FC0000005010902A101090123
:1000A000A100050919012902150025017501950214
:1000B0008102750695018101050109300931093870
:1000C0001581257F750895028106C0C012010101C6
:1000D000000000400000554D00000102030109022C
:1000E0002200010100C032090400000103000200E7
:1000F00009210110000122340007058103080002D4
:100100000403090418034400650061006E00200028
:10011000430061006D0065007200610022034D0024
:10012000790055005300420020004D006F0075001B
:10013000730065002000440065006D006F001C0323
:1001400030002E0030002E0030002E0030002E0037
:1001500030002E0030002E00300011241FBECFEFE3
:10016000D0E2DEBFCDBF11E0A0E0B1E0E0EDFAE00B
:1001700000E00BBF02C007900D92A630B107D9F77F
:1001800011E0A6E0B1E001C01D92AE30B107E1F789
:1001900002D09DC435CF1F9380E8809361001092F8
:1001A000610084B18F7184B98DB18F7C8DB985B1B7
:1001B000806E85B98EB180638EB98AB1806F8AB93D
:1001C0008BB18F708BB96A98729A8BB18F7080697E
:1001D0008BB960E081E047D182E08093070110E0B5
:1001E000812F90E0FC01EE0FFF1FE80FF91FE05098
:1001F000FF4F8281882321F00190F081E02D099545
:100200001F5F123068F3EBCF23B18CB190E0809583
:10021000909580739070959587952095207E282BDA
:10022000822F90E024FF02C031E003C0322F330F51
:10023000330B83FF02C021E005C086FF02C02FEF11
:1002400001C020E075E0969587957A95E1F7982FA3
:100250009170629B926080910D01882391F081E002
:100260008093E9008091E80085FF0BC09093F10036
:100270002093F1003093F1008091E8008F77809314
:10028000E800089540E061EC81E01CD18BB18F70F3
:1002900080668BB90895CF93DF93DA01E90183304B
:1002A000E9F0843030F4813059F0823009F04CC0EC
:1002B0000EC0813209F436C0823209F045C03DC01B
:1002C0008CEC90E08D939C9382E190E031C08EEDB8
:1002D00090E08D939C9382E290E02AC0613071F0AF
:1002E000613028F0623081F0633071F515C080E034
:1002F00091E08D939C9384E090E01AC0E4E0F1E0FB
:10030000ED93FC93E49105C0ECE1F1E0ED93FC93F7
:10031000E4918E2F90E00CC0EEE3F1E0ED93FC93BE
:10032000E491F7CF80EF90E08D939C9389E090E08B
:100330009983888381E090E009C088E990E08D93FB
:100340009C9384E390E0F4CF80E090E0DF91CF9144
:10035000089580910D01882309F0B8D38091D800C9
:100360008C7F8093D8001092E2001092DA001092F5
:10037000E100BCD08091E00081608093E00080913A
:10038000D7008E7F8093D70010920D0110920C0140
:1003900010920B010895DDDFA9D080910A01282F6A
:1003A00080FF04C08091E000846003C08091E00081
:1003B0008B7F8093E0008091D80081608093D8008B
:1003C00021FD05C08091D70081608093D7008EE029
:1003D00089BD09B400FEFDCF8091D8008F7780934E
:1003E000D8008091D80080688093D8008091D80090
:1003F0008F7D8093D80040E360E080E063D08091FF
:10040000EE0087FF17C08091E0008E7F8093E000B0
:100410008091E20081608093E2008091E200886038
:100420008093E20081E080930C0110920D0181E045
:1004300090E0089581E04AD380E090E0089589DF5C
:100440001092060110920A01A8EDB0E08C918F770E
:100450008C9319BCE7EDF0E080818E7F80838C91D6
:100460008F7E8C9308950F931F93182F062F8091E2
:100470000C01882309F0E3DF10930601112319F41E
:1004800080E024D31CC0113019F081E01FD305C0D7
:100490008091D70080688093D70081E080930C0121
:1004A00010920D018091D80080618093D800009354
:1004B0000A018091D80081608093D80078941F91C0
:1004C0000F91089587708093E900EBEEF0E0808152
:1004D000816080836093EC00EDEEF0E080818270BB
:1004E000842B8083808182608083089540E050E087
:1004F000242F27702093E9008091EB00982F9160C2
:100500009093EB008E7F8093EB002093E900109294
:10051000F0008091ED008D7F8093ED008091EB00E5
:100520008E7F8093EB004F5F5F4F4730510501F79F
:1005300008951F93CF93DF93CDB7DEB728970FB6FB
:10054000F894DEBF0FBECDBF6091F100262F30E0E2
:100550008091F1008530A9F0863050F4813009F4A3
:100560008DC1813008F4F5C0833009F0D3C15DC17D
:10057000883009F455C0893049F1863009F0CAC184
:100580006AC0662309F0C6C19091F1008091E30032
:100590009F738078982B9093E3008091E800877F89
:1005A0008093E8008091E8008E7F8093E80080913E
:1005B000E8008F778093E8008091E80080FFFCCF0F
:1005C0008091E30080688093E300A5C1662309F071
:1005D000A1C11091F1009E01295F3F4FAE014F5F15
:1005E0005F4F81E058DE882309F495C1E981FA81E3
:1005F0007196E491E11708F48EC110930B0180917C
:10060000E800877F8093E8008091E8008E7F8093E8
:10061000E8008091E8008F778093E80033DE7BC1AB
:10062000603809F077C180910B018093F1008091CF
:10063000E800877F8093E8008091E8008E7F8093B8
:10064000E8008091E8008F778093E8008091E800CF
:1006500082FFFCCF75C06091F1008091F1009E0196
:10066000295F3F4FAE014D5F5F4F15DE882309F4D0
:1006700052C18091F10089838091F100898320919A
:10068000F1008091F10090E0582F442730E0422B98
:10069000532B8091E800877F8093E8002F81388575
:1006A0002417350730F42F733070232B21F4A1E089
:1006B00003C058874F83A0E06B817C812F813885F0
:1006C00020C08091E80080FFFCCFFB0190E006C0D5
:1006D0009F5F84918093F10031969A01BF012115AB
:1006E000310529F0A90141505040903489F780919B
:1006F000E8008E7F8093E8008091E8008F778093F8
:10070000E8002115310521F08091E80082FFD9CF62
:100710008091E80082FD14C0AA2371F08091E80066
:1007200080FFFCCF8091E8008E7F8093E80080916D
:10073000E8008F778093E8008091E80082FFFCCF8B
:100740008091E8008B7F8093E8008091E8008F77AC
:1007500069C0A9014F7150704330510509F4DAC0E6
:10076000207630702034310509F4D4C08091F10036
:1007700089838091F10089838091F1004130510596
:1007800031F04230510509F1452B19F0C4C090E019
:1007900025C09E01295F3F4FAE014B5F5F4F6091C7
:1007A0000B0182E078DD882309F4B5C0ED81FE817C
:1007B0003796E4918E2F807C11F092E001C090E09A
:1007C0008E2F807A59F0916009C087708093E9007C
:1007D0009091EB00909591701092E9008091E80063
:1007E000877F8093E8009093F1001092F100809150
:1007F000E8008E7F8093E8008091E8008F778093F7
:10080000E8008091E80082FFFCCF8091E8008B7FB8
:100810008093E8008091E8008F778093E8008091D2
:10082000E800877F8093E80076C0A9014F7150707F
:100830004330510509F46EC0207630702034310504
:1008400009F468C09091F1008091F1008983809152
:10085000F1004230510509F05EC0992309F05BC0F8
:10086000982F97709093E9008091EB0080FF4FC024
:100870009923E1F18091EB00806236C0A9014F71AC
:1008800050704330510509F445C020763070203453
:10089000310509F43FC09091F1008091F100898306
:1008A0008091F10042305105B1F59923A1F5282F2F
:1008B00027702093E9008091EB0080FF28C022235D
:1008C000A9F08091EB008F7D8093EB0081E090E0B8
:1008D00002C0880F991F2A95E2F78093EA001092D0
:1008E000EA008091EB0088608093EB001092E900B1
:1008F0008091E800877F8093E8008091E8008E7FF8
:100900008093E8008091E8008F778093E800109250
:10091000E90001C0DBD08091E80083FF0AC080912C
:10092000EB0080628093EB008091E800877F8093EA
:10093000E80028960FB6F894DEBF0FBECDBFDF915A
:10094000CF911F91089580910D01882339F0109265
:10095000E9008091E80083FF01C0EBCD08951F926C
:100960000F920FB60F9211242F933F934F935F93E3
:100970006F937F938F939F93AF93BF93EF93FF9367
:100980008091DA0080FF2EC08091D80080FF2AC0BD
:100990008091DA008E7F8093DA0098D08091D90020
:1009A00080FF0DC093D080910C018823D9F0F3DC37
:1009B0008823C1F081E080930D0188D013C086D0D8
:1009C0008091E00081608093E0008091D7008E7F6D
:1009D0008093D7007BD08091DA008E7F8093DA00FD
:1009E00010920D018091E10080FF1AC08091E20019
:1009F00080FF16C08091E1008E7F8093E10080919E
:100A0000D80080628093D80019BC8091E2008E7F6C
:100A10008093E2008091E20080618093E20056D0F2
:100A20008091E10084FF1EC08091E20084FF1AC023
:100A30008091E1008F7E8093E1008091D8008F7DCE
:100A40008093D8008EE089BD09B400FEFDCF80916F
:100A5000E2008F7E8093E2008091E20081608093CB
:100A6000E20034D08091E10083FF1FC08091E2005A
:100A700083FF1BC08091E100877F8093E10010928B
:100A80000B018091E1008E7F8093E1008091E20074
:100A90008E7F8093E2008091E20080618093E2008B
:100AA00040E360E080E00EDD11D0FF91EF91BF9157
:100AB000AF919F918F917F916F915F914F913F91F6
:100AC0002F910F900FBE0F901F9018950895FFCF94
:060AD000A3040104010172
:00000001FF
