:10000000B4C00000D0C00000CEC00000CCC00000D2
:10001000CAC00000C8C00000C6C00000C4C00000C4
:10002000C2C00000C0C000000C94880ABCC0000020
:10003000BAC00000B8C00000B6C00000B4C00000E4
:10004000B2C00000B0C00000AEC00000ACC00000F4
:10005000AAC00000A8C00000A6C00000A4C0000004
:10006000A2C00000A0C000009EC000009CC0000014
:100070009AC0000098C0000096C0000094C0000024
:1000800092C0000090C000008EC000008CC0000034
:100090008AC0000088C00000120101010000004079
:1000A0000000444600000102030109022000010192
:1000B00000C0320904000002080650000705810252
:1000C0004000000705020240000004030904180371
:1000D0004400650061006E002000430061006D0077
:1000E00065007200610030034D0079005500530037
:1000F000420020004D006100730073002000530097
:1001000074006F0072006100670065002000440009
:1001100065006D006F001C0330002E0030002E00C3
:1001200030002E0030002E0030002E0030002E0057
:100130003000008000021F0000004D79555342201E
:10014000202044617461666C617368204469736B3C
:100150002020302E3030800300000000030000001B
:100160000001000000000100000011241FBECFEFBD
:10017000D0E2DEBFCDBF11E0A0E0B1E0E2E8F6E101
:1001800000E00BBF02C007900D92A632B107D9F76D
:1001900011E0A6E2B1E001C01D92AE34B107E1F773
:1001A0002ED10C94400B2CCF8930910518F480E0AF
:1001B00090E008958131910518F480E190E0089570
:1001C0008132910518F480E290E008958134910520
:1001D00018F480E390E008958138910518F480E4E4
:1001E00090E008958150914018F480E590E00895E2
:1001F00080E690E00895823031F48BB1607C8F739B
:10020000862B8BB90895813029F48BB160738F7C74
:10021000862B8BB908958E3FA1F08F3F29F561326F
:1002200019F58091E800877F8093E8008091E800CD
:100230008E7F8093E8008091E8008F778093E800BC
:100240000895613A89F48091E800877F8093E800FF
:100250001092F1008091E8008E7F8093E8008091F9
:10026000E8008F778093E80008951F93CF93DF9382
:1002700080914D01882309F4AAC012E01093E9008F
:100280008091E80085FFA3C060EC82E0B4DFE7E284
:10029000F1E01093E9009F018091F1008193E90161
:1002A00081E0E633F807C1F780912701909128019A
:1002B000A0912901B0912A0185559345A244B344E8
:1002C00059F480913401882339F4809135018131CA
:1002D00018F420E030E00FC060E882E08CDF80910D
:1002E000EB0080628093EB0081E08093E90031C0F5
:1002F0008091F1008E87922F2F5F3F4F2196809142
:1003000035019817A8F38091E8008F778093E80073
:100310008091330187FF03C081E08093E90025D2FB
:1003200020912F01309130014091310150913201E3
:1003300020930E0130930F0140931001509311014F
:1003400080911201813051F421153105410551058B
:1003500029F08091EB0080628093EB0080912B016B
:1003600090912C01A0912D01B0912E0180930A0152
:1003700090930B01A0930C01B0930D0102C00E9459
:100380007C0A82E08093E9008091EB0085FDF7CF45
:1003900002C00E947C0A81E08093E9008091EB001A
:1003A00085FDF7CF8091E80085FFFCCFE6E0F1E026
:1003B00081918093F10081E0E331F807C9F78091E2
:1003C000E8008F778093E80060E482E014DFDF913B
:1003D000CF911F9108951F9380E490E0E5DE182FE0
:1003E0001460412F61E881E045D6412F60E882E04A
:1003F00041D68BB18F7080668BB91F9108951F9382
:1004000080E880936100109261008AB1806F8AB9A0
:100410008BB18F708BB9189A84B1866084B98DB115
:1004200083608DB98EB183608EB98CE58CBD81E01F
:100430008DBD13D38BB18F7080698BB960E081E083
:10044000EAD582E08093470110E0812F90E0FC0123
:10045000EE0FFF1FE80FF91FE050FF4F8281882346
:1004600021F00190F081E02D09951F5F123068F3B3
:10047000EBCFCF93DF93DA01E901823061F0833073
:1004800089F0813009F036C088E990E08D939C9323
:1004900082E190E024C08AEA90E08D939C9380E210
:1004A00090E01DC0613071F0613028F0623081F061
:1004B000633001F519C08AEC90E08D939C9384E041
:1004C00090E00DC0EEECF0E0ED93FC93E49105C0FC
:1004D000E6EEF0E0ED93FC93E4918E2F90E09983AB
:1004E000888381E090E008C0E6E1F1E0ED93FC93C1
:1004F000E491F3CF80E090E0DF91CF9108959C01EB
:1005000044275527A32FBB27E1EFF0E0A0832083EA
:10051000272F3327208360830895823031F48BB1F5
:10052000607C8F73862B8BB90895813029F48BB151
:1005300060738F7C862B8BB90895662311F010921F
:10054000F1008093F100662321F01092F1001092E7
:10055000F1001092F1001092F1001092F100089554
:10056000DA0112161306A4F48093F1006093F100EF
:1005700040E00AC090E08217930751F0ED91F0E05F
:10058000E491E093F1004F5F842F8E5F461791F75F
:100590000895DF92EF92FF920F931F93182F8823F5
:1005A00019F0D0903E0102C0D0903A0180913801FC
:1005B0008F738C3189F08F33C1F0813081F5612FD9
:1005C0008FE0BBDF2D2D30E024503040012F46E579
:1005D00051E06AE081E031C0612F8FE0AEDF2D2D68
:1005E00030E024503040012F15C0612F8BE1A5DF92
:1005F000ED2CFF248CEF9FEFE80EF91E012F9701E1
:1006000046E551E06AE081E0ABDF84EF9FEFE80E62
:10061000F91E970140E651E06AE08CE10EC080913E
:100620001501807F85608093150184E280931F010E
:100630001092200180E090E01CC092DF8091E800E1
:100640008F778093E80080912F0190913001A091E5
:100650003101B09132018D199109A109B10980933D
:100660002F0190933001A0933101B093320181E0CA
:1006700090E01F910F91FF90EF90DF9008951F93EE
:10068000CF93DF93CDB7DEB726970FB6F894DEBFD2
:100690000FBECDBF182F8091380190913A0166238B
:1006A00079F08E83809139018D839C8380913B0109
:1006B0008B8380913D018A8380913E01898306C0AE
:1006C0001E82809137018D831B829C838B819C814C
:1006D000AD81BE818F5F9F47A040B04070F0809198
:1006E0001501807F85608093150181E280931F0151
:1006F0001092200180E090E02EC060E181E00DDFEB
:100700006B817C818D819E8149815A81112311F0F9
:10071000FCD101C0E2D260E281E0FFDE29813A81B2
:10072000322F2227330F40E050E080912F0190912B
:100730003001A0913101B0913201821B930BA40BC7
:10074000B50B80932F0190933001A0933101B093AA
:10075000320181E090E026960FB6F894DEBF0FBE1E
:10076000CDBFDF91CF911F910895809136018D31DA
:1007700009F4E3C08E31A8F4883009F428C1893027
:1007800038F4882309F42CC1833009F032C179C0D0
:100790008231E9F08A3109F41EC18A3009F029C199
:1007A00013C1883209F40EC1893238F48E3109F44C
:1007B00017C1853209F01DC19DC08F3209F410C1E7
:1007C0008A3509F40AC18A3209F013C1F9C080914F
:1007D000390190E0382F222780913A0190E0282BB0
:1007E000392B8091370190E083709070892B09F04C
:1007F000A8C080913801882309F0A3C080E090E070
:10080000482F8217930711F450E01CC0FC01EE5CE6
:10081000FE4FE491E093F1004F5F01968432910521
:1008200099F3EECF503451F48091E8008F778093A4
:10083000E8008091E80085FFFCCF50E01092F100C5
:100840004F5F5F5F842F90E08217930758F380918A
:10085000E8008F778093E80080912F01909130011C
:10086000A0913101B0913201841B9109A109B10914
:1008700080932F0190933001A0933101B093320106
:100880008FC050913A0190E020E030E0422F951760
:10089000E9F0F901ED5EFE4F80818093F1004F5F3A
:1008A0009F5F2F5F3F4F923189F0F0CF903451F42A
:1008B0008091E8008F778093E8008091E80085FFC1
:1008C000FCCF90E01092F1004F5F9F5F451770F3EF
:1008D0008091E8008F778093E80080912F019091BC
:1008E0003001A0913101B0913201841B9109A1091D
:1008F000B1091AC06FEF7FE780E090E000DE60E0B2
:1009000072E080E090E0FBDD8091E8008F778093DB
:10091000E80080912F0190913001A0913101B091B8
:1009200032010897A109B10980932F0190933001FA
:10093000A0933101B09332016AC08091370182FDEA
:100940000AC080911501807F85608093150184E243
:1009500080931F0130C08EB18C7F82608EB98FE989
:100960008EBD0DB407FEFDCF8EB51EBC0DB407FEC7
:10097000FDCF2EB58EB18C7F81608EB98FE98EBD93
:100980000DB407FEFDCF8EB51EBC0DB407FEFDCF26
:100990009EB58EB183608EB92F3129F49F3119F441
:1009A00081E090E032C080911501807F8460809367
:1009B000150110921F011092200180E090E025C0E7
:1009C00061E003C061E004C060E080E002C060E07C
:1009D00081E055DE1AC080E001C081E0DADD15C09B
:1009E00010922F01109230011092310110923201B9
:1009F0000EC080911501807F85608093150180E293
:100A000080931F01109220010EC0882361F0109284
:100A1000120180911501807F8093150110921F01B2
:100A200010922001089581E0809312010895A0E0C2
:100A3000B0E0B695A79597958795089539D287ED3B
:100A40008EBD0DB407FEFDCF8EB51EBC0DB407FEE6
:100A5000FDCF0EB407FEF9CF08958EB18C7F826072
:100A60008EB987ED8EBD0DB407FEFDCF8EB51EBCD1
:100A70000DB407FEFDCF0EB401FE19C019D28DE3EF
:100A80008EBD0DB407FEFDCF8EB58AE28EBD0DB4CE
:100A900007FEFDCF8EB58FE78EBD0DB407FEFDCFEF
:100AA0008EB58AE98EBD0DB407FEFDCF8EB58EB131
:100AB0008C7F81608EB987ED8EBD0DB407FEFDCFB2
:100AC0008EB51EBC0DB407FEFDCF0EB401FE19C0DD
:100AD000EFD18DE38EBD0DB407FEFDCF8EB58AE25A
:100AE0008EBD0DB407FEFDCF8EB58FE78EBD0DB464
:100AF00007FEFDCF8EB58AE98EBD0DB407FEFDCF92
:100B00008EB58EB183608EB90895AF92BF92CF92A9
:100B1000DF92EF92FF920F931F93CF93DF93CDB7A6
:100B2000DEB721970FB6F894DEBF0FBECDBFDC0154
:100B3000CB015A017C017BDF6C0100E010E079E021
:100B4000EE0CFF1C001F111F7A95D1F78FEF93E079
:100B5000E822F922C6019AD182ED8EBD0DB407FEBE
:100B6000FDCF8EB5B701C601ADD11EBC0DB407FED9
:100B7000FDCF8EB51EBC0DB407FEFDCF8EB51EBCDD
:100B80000DB407FEFDCF8EB51EBC0DB407FEFDCF24
:100B90008EB58091E80085FFFCCF00E010E019825F
:100BA00084C090E0E91694E0F90629F50894C11C88
:100BB000D11CC6016BD182ED8EBD0DB407FEFDCFF9
:100BC0008EB560E070E0C6017DD11EBC0DB407FE9D
:100BD000FDCF8EB51EBC0DB407FEFDCF8EB51EBC7D
:100BE0000DB407FEFDCF8EB51EBC0DB407FEFDCFC4
:100BF0008EB5EE24FF241EBC0DB407FEFDCF8EB5CE
:100C00008093F1001EBC0DB407FEFDCF8EB580931E
:100C1000F1001EBC0DB407FEFDCF8EB58093F10030
:100C20001EBC0DB407FEFDCF8EB58093F1001EBC37
:100C30000DB407FEFDCF8EB58093F1001EBC0DB440
:100C400007FEFDCF8EB58093F1001EBC0DB407FEEC
:100C5000FDCF8EB58093F1001EBC0DB407FEFDCF15
:100C60008EB58093F100085F1F4FE981E85FE9834B
:100C7000F2E000301F0729F40894A108B10800E051
:100C800010E08981803469F48091E8008F77809347
:100C9000E800A114B10421F08091E80085FFFCCFA9
:100CA0001982E8E0F0E0EE0EFF1EA114B10409F095
:100CB00078CF8EB183608EB921960FB6F894DEBFDF
:100CC0000FBECDBFDF91CF911F910F91FF90EF909D
:100CD000DF90CF90BF90AF900895CF92DF92EF92C8
:100CE000FF920F931F93CF93DF93DC01CB016A0137
:100CF0007C019DDEEC0100E010E0E9E0EE0CFF1C61
:100D0000001F111FEA95D1F787011370BFD083E54B
:100D10008EBD0DB407FEFDCF8EB560E070E0CE0154
:100D2000D1D08CDEC5D084E88EBD0DB407FEFDCFDA
:100D30008EB5B80180E090E0C5D08091E80085FFD5
:100D4000FCCFEE24FF2486C084E00030180741F574
:100D5000AFD083E88EBD0DB407FEFDCF8EB560E049
:100D600070E0CE01AFD02196CE0190D067DE83E552
:100D70008EBD0DB407FEFDCF8EB560E070E0CE01F4
:100D8000A1D05CDE95D084E88EBD0DB407FEFDCF0A
:100D90008EB560E070E080E090E094D000E010E07C
:100DA0008091F1008EBD0DB407FEFDCF8EB5809110
:100DB000F1008EBD0DB407FEFDCF8EB58091F10020
:100DC0008EBD0DB407FEFDCF8EB58091F1008EBDB6
:100DD0000DB407FEFDCF8EB58091F1008EBD0DB430
:100DE00007FEFDCF8EB58091F1008EBD0DB407FEDC
:100DF000FDCF8EB58091F1008EBD0DB407FEFDCF05
:100E00008EB58091F1008EBD0DB407FEFDCF8EB57D
:100E1000085F1F4F88E090E0E80EF91E90E0E916A9
:100E200092E0F90629F40894C108D108EE24FF24C1
:100E30008091F2009091F300892B61F48091E80099
:100E40008F778093E800C114D10421F08091E800ED
:100E500085FFFCCFC114D10409F076CF29D083E8F7
:100E60008EBD0DB407FEFDCF8EB560E070E0CE0103
:100E700029D0E4DD8EB183608EB9DF91CF911F91CF
:100E80000F91FF90EF90DF90CF90089520E4813094
:100E9000920718F08EB1836009C080FF04C08EB144
:100EA0008C7F816003C08EB18C7F82608EB9089583
:100EB0008EB19EB193609EB99EB183709C7F892B49
:100EC0008EB90895AC015695479526E0969587957D
:100ED0002A95E1F78EBD0DB407FEFDCF8EB5272F05
:100EE0003327842F880F880F880F822B8EBD0DB477
:100EF00007FEFDCF8EB56EBD0DB407FEFDCF8EB5DE
:100F0000089580914D01882309F0B9D38091D800CC
:100F10008C7F8093D8001092E2001092DA00109239
:100F2000E100BCD08091E00081608093E00080917E
:100F3000D7008E7F8093D70010924D0110924C0104
:100F400010924B010895DDDFA9D080914A01282F2E
:100F500080FF04C08091E000846003C08091E000C5
:100F60008B7F8093E0008091D80081608093D800CF
:100F700021FD05C08091D70081608093D7008EE06D
:100F800089BD09B400FEFDCF8091D8008F77809392
:100F9000D8008091D80080688093D8008091D800D4
:100FA0008F7D8093D80040E360E080E063D0809143
:100FB000EE0087FF17C08091E0008E7F8093E000F5
:100FC0008091E20081608093E2008091E20088607D
:100FD0008093E20081E080934C0110924D0181E00A
:100FE00090E0089581E04BD380E090E0089589DFA0
:100FF0001092260110924A01A8EDB0E08C918F77F3
:101000008C9319BCE7EDF0E080818E7F80838C911A
:101010008F7E8C9308950F931F93182F062F809126
:101020004C01882309F0E3DF10932601112319F402
:1010300080E025D31CC0113019F081E020D305C019
:101040008091D70080688093D70081E080934C0125
:1010500010924D018091D80080618093D800009358
:101060004A018091D80081608093D80078941F91C4
:101070000F91089587708093E900EBEEF0E0808196
:10108000816080836093EC00EDEEF0E080818270FF
:10109000842B8083808182608083089540E050E0CB
:1010A000242F27702093E9008091EB00982F916006
:1010B0009093EB008E7F8093EB002093E9001092D9
:1010C000F0008091ED008D7F8093ED008091EB002A
:1010D0008E7F8093EB004F5F5F4F4730510501F7E4
:1010E00008951F93CF93DF93CDB7DEB728970FB640
:1010F000F894DEBF0FBECDBF6091F100262F30E027
:101100008091F1008530A9F0863050F4813009F4E7
:101110008DC1813008F4F5C0833009F0D3C15DC1C1
:10112000883009F455C0893049F1863009F0CAC1C8
:101130006AC0662309F0C6C19091F1008091E30076
:101140009F738078982B9093E3008091E800877FCD
:101150008093E8008091E8008E7F8093E800809182
:10116000E8008F778093E8008091E80080FFFCCF53
:101170008091E30080688093E300A6C1662309F0B4
:10118000A1C11091F1009E01295F3F4FAE014F5F59
:101190005F4F81E06ED9882309F496C1E981FA8115
:1011A0007196E491E11708F48FC110934B0180917F
:1011B000E800877F8093E8008091E8008E7F80932D
:1011C000E8008091E8008F778093E80004D97CC123
:1011D000603809F077C180914B018093F1008091D4
:1011E000E800877F8093E8008091E8008E7F8093FD
:1011F000E8008091E8008F778093E8008091E80014
:1012000082FFFCCF75C06091F1008091F1009E01DA
:10121000295F3F4FAE014D5F5F4F2BD9882309F403
:1012200053C18091F10089838091F10089832091DD
:10123000F1008091F10090E0582F442730E0422BDC
:10124000532B8091E800877F8093E8002F813885B9
:101250002417350730F42F733070232B21F4A1E0CD
:1012600003C058874F83A0E06B817C812F81388534
:1012700020C08091E80080FFFCCFFB0190E006C019
:101280009F5F84918093F10031969A01BF012115EF
:10129000310529F0A90141505040903489F78091DF
:1012A000E8008E7F8093E8008091E8008F7780933C
:1012B000E8002115310521F08091E80082FFD9CFA7
:1012C0008091E80082FD14C0AA2371F08091E800AB
:1012D00080FFFCCF8091E8008E7F8093E8008091B2
:1012E000E8008F778093E8008091E80082FFFCCFD0
:1012F0008091E8008B7F8093E8008091E8008F77F1
:1013000069C0A9014F7150704330510509F4DAC02A
:10131000207630702034310509F4D4C08091F1007A
:1013200089838091F10089838091F10041305105DA
:1013300031F04230510509F1452B19F0C5C090E05C
:1013400025C09E01295F3F4FAE014B5F5F4F60910B
:101350004B0182E08ED8882309F4B6C0ED81FE816E
:101360003796E4918E2F807C11F092E001C090E0DE
:101370008E2F807A59F0916009C087708093E900C0
:101380009091EB00909591701092E9008091E800A7
:10139000877F8093E8009093F1001092F100809194
:1013A000E8008E7F8093E8008091E8008F7780933B
:1013B000E8008091E80082FFFCCF8091E8008B7FFD
:1013C0008093E8008091E8008F778093E800809117
:1013D000E800877F8093E80077C0A9014F715070C3
:1013E0004330510509F46EC0207630702034310549
:1013F00009F468C09091F1008091F1008983809197
:10140000F1004230510509F05FC0992309F05CC03A
:10141000982F97709093E9008091EB0080FF4FC068
:101420009923E1F18091EB00806236C0A9014F71F0
:1014300050704330510509F445C020763070203497
:10144000310509F43FC09091F1008091F10089834A
:101450008091F10042305105B9F59923A9F5282F63
:1014600027702093E9008091EB0080FF28C02223A1
:10147000A9F08091EB008F7D8093EB0081E090E0FC
:1014800002C0880F991F2A95E2F78093EA00109214
:10149000EA008091EB0088608093EB001092E900F5
:1014A0008091E800877F8093E8008091E8008E7F3C
:1014B0008093E8008091E8008F778093E800109295
:1014C000E90002C00E940B018091E80083FF0AC07E
:1014D0008091EB0080628093EB008091E800877F31
:1014E0008093E80028960FB6F894DEBF0FBECDBFFC
:1014F000DF91CF911F91089580914D01882339F09C
:101500001092E9008091E80083FF01C0EACD0895C0
:101510001F920F920FB60F9211242F933F934F9368
:101520005F936F937F938F939F93AF93BF93EF934B
:10153000FF938091DA0080FF2EC08091D80080FF59
:101540002AC08091DA008E7F8093DA0098D0809153
:10155000D90080FF0DC093D080914C018823D9F031
:10156000F2DC8823C1F081E080934D0188D013C064
:1015700086D08091E00081608093E0008091D70068
:101580008E7F8093D7007BD08091DA008E7F80930E
:10159000DA0010924D018091E10080FF1AC0809125
:1015A000E20080FF16C08091E1008E7F8093E10011
:1015B0008091D80080628093D80019BC8091E200AD
:1015C0008E7F8093E2008091E20080618093E20050
:1015D00056D08091E10084FF1EC08091E20084FF1C
:1015E0001AC08091E1008F7E8093E1008091D80045
:1015F0008F7D8093D8008EE089BD09B400FEFDCFB9
:101600008091E2008F7E8093E2008091E200816011
:101610008093E20034D08091E10083FF1FC080916D
:10162000E20083FF1BC08091E100877F8093E1008F
:1016300010924B018091E1008E7F8093E1008091B8
:10164000E2008E7F8093E2008091E20080618093CF
:10165000E20040E360E080E00DDD11D0FF91EF910A
:10166000BF91AF919F918F917F916F915F914F91BA
:101670003F912F910F900FBE0F901F9018950895D6
:02168000FFCF9A
:101682007C0A01350101555342530000000000005D
:10169200000000C80000000000000A000000000076
:0616A20000000000000042
:00000001FF
