:10000000E1C00000FCC00000FAC00000F8C0000021
:10001000F6C00000F4C00000F2C00000F0C0000014
:10002000EEC00000ECC000009DC50000E8C000006C
:10003000E6C00000E4C00000E2C00000E0C0000034
:10004000DEC00000DCC00000DAC00000D8C0000044
:10005000D6C00000D4C00000D2C00000D0C0000054
:10006000CEC00000CCC00000CAC00000C8C0000064
:10007000C6C00000C4C00000C2C00000C0C0000074
:10008000BEC00000BCC00000BAC00000B8C0000084
:10009000B6C00000B4C00000402823294D79555354
:1000A00042204344432041707000402823293232CB
:1000B0003A31313A333900402823294A616E2032DF
:1000C000342032303038004A6F79737469636B20A2
:1000D00055700D0A004A6F79737469636B20446F21
:1000E000776E0D0A004A6F79737469636B204C65F3
:1000F00066740D0A004A6F79737469636B205269E4
:100100006768740D0A004A6F79737469636B2050D5
:100110007265737365640D0A00120101010200002B
:10012000400000535600000102030109024300028F
:100130000100C03209040000010202010005240090
:100140001001052401030104240206052406000110
:100150000705830308000209040100020A000000E9
:100160000705020240000007058102400000040369
:10017000090418034400650061006E00200043007C
:1001800061006D006500720061001E034D00790082
:10019000550053004200200043004400430020006B
:1001A000440065006D006F001C0330002E0030001D
:1001B0002E0030002E0030002E0030002E003000C7
:1001C0002E00300011241FBECFEFD0E2DEBFCDBF26
:1001D00011E0A0E0B1E0E6EDFCE000E00BBF02C002
:1001E00007900D92AE30B107D9F711E0AEE0B1E063
:1001F00001C01D92A731B107E1F731D16BC500CF26
:100200008930910518F480E090E0089581319105DE
:1002100018F480E190E008958132910518F480E2AD
:1002200090E008958134910518F480E390E00895FA
:100230008138910518F480E490E008958150914050
:1002400018F480E590E0089580E690E00895CF935B
:10025000DF93CDB7DEB721970FB6F894DEBF0FBEA0
:10026000CDBF982FE6E0F1E08091F1008983809185
:10027000F1008983913239F0923209F45BC09032F7
:1002800009F06DC02CC0613209F069C08091E800AE
:10029000877F8093E80081918093F10081E0ED30C9
:1002A000F807C9F78091E8008E7F8093E80080917D
:1002B000E8008F778093E8008091E80080FFFCCF12
:1002C0008091E80082FFFCCF8091E8008B7F8093D3
:1002D000E8008091E8008F778093E80040C06132A9
:1002E000F1F58091E800877F8093E8008091E80035
:1002F00082FFFCCF8091F100819381E0ED30F8071F
:10030000C9F78091E8008B7F8093E8008091E80036
:100310008F778093E8008091E8008E7F8093E800DB
:100320008091E8008F778093E8008091E80080FD5D
:1003300016C0FBCF613299F48091E800877F8093EB
:10034000E8008091E8008E7F8093E8008091E800CB
:100350008F778093E8008091E80080FFFCCF2196A2
:100360000FB6F894DEBF0FBECDBFDF91CF910895D9
:100370009C01809116018823A9F081E08093E90017
:100380008091E80085FD03C0FBCF8093F100F90167
:100390002F5F3F4F84918823C1F78091E8008F77CA
:1003A0008093E800089523B18CB190E080959095FA
:1003B00080739070959587952095207E282B422FED
:1003C00024FF03C027EC30E007C027FF03C025ED62
:1003D00030E002C020E030E046FF03C025EE30E010
:1003E00004C043FF02C025EF30E045FD06C02115E3
:1003F000310529F410920E010BC026E031E0809106
:100400000E01882329F481E080930E01C901B0DF39
:1004100082E08093E9008091E80085FF05C080912B
:10042000E8008F778093E80008951F9388E090E0BC
:10043000E7DE482F61EC83E048D180E490E0E0DE25
:10044000182F482F61E881E040D1412F60E882E019
:100450003CD18BB18F7080668BB91F9108951F932B
:1004600080E8809361001092610084B18F7184B93B
:100470008DB18F7C8DB985B1806E85B98EB1806369
:100480008EB98AB1806F8AB98BB18F708BB98BB1FD
:100490008F7080698BB960E081E0E8D082E0809362
:1004A000100110E0812F90E0FC01EE0FFF1FE80F1C
:1004B000F91FE050FF4F8281882321F00190F081E5
:1004C000E02D09951F5F123068F3EBCFCF93DF93D8
:1004D000DA01E901823061F0833089F0813009F07E
:1004E00036C089E191E08D939C9382E190E024C035
:1004F0008BE291E08D939C9383E490E01DC061308A
:1005000071F0613028F0623081F0633001F519C07C
:100510008EE691E08D939C9384E090E00DC0E2E73D
:10052000F1E0ED93FC93E49105C0EAE8F1E0ED938E
:10053000FC93E4918E2F90E09983888381E090E092
:1005400008C0E8EAF1E0ED93FC93E491F3CF80E09A
:1005500090E0DF91CF91089580911601882309F0F2
:10056000B8D38091D8008C7F8093D8001092E2009D
:100570001092DA001092E100BCD08091E00081601E
:100580008093E0008091D7008E7F8093D7001092F7
:10059000160110921501109214010895DDDFA9D003
:1005A00080911301282F80FF04C08091E0008460B7
:1005B00003C08091E0008B7F8093E0008091D800A1
:1005C00081608093D80021FD05C08091D7008160B3
:1005D0008093D7008EE089BD09B400FEFDCF8091E5
:1005E000D8008F778093D8008091D800806880935E
:1005F000D8008091D8008F7D8093D80040E360E0E0
:1006000080E063D08091EE0087FF17C08091E0000A
:100610008E7F8093E0008091E20081608093E20011
:100620008091E20088608093E20081E08093150170
:100630001092160181E090E0089581E04AD380E0B5
:1006400090E0089589DF10920F0110921301A8ED38
:10065000B0E08C918F778C9319BCE7EDF0E080814E
:100660008E7F80838C918F7E8C9308950F931F9340
:10067000182F062F80911501882309F0E3DF1093CE
:100680000F01112319F480E024D31CC0113019F09C
:1006900081E01FD305C08091D70080688093D70088
:1006A00081E080931501109216018091D80080613D
:1006B0008093D800009313018091D80081608093CB
:1006C000D80078941F910F91089587708093E90066
:1006D000EBEEF0E08081816080836093EC00EDEED2
:1006E000F0E080818270842B8083808182608083AF
:1006F000089540E050E0242F27702093E900809176
:10070000EB00982F91609093EB008E7F8093EB002D
:100710002093E9001092F0008091ED008D7F80938E
:10072000ED008091EB008E7F8093EB004F5F5F4F79
:100730004730510501F708951F93CF93DF93CDB74D
:10074000DEB728970FB6F894DEBF0FBECDBF60911D
:10075000F100262F30E08091F1008530A9F086303D
:1007600050F4813009F48DC1813008F4F5C0833034
:1007700009F0D3C15DC1883009F455C0893049F111
:10078000863009F0CAC16AC0662309F0C6C19091DB
:10079000F1008091E3009F738078982B9093E300A1
:1007A0008091E800877F8093E8008091E8008E7F49
:1007B0008093E8008091E8008F778093E800809133
:1007C000E80080FFFCCF8091E30080688093E30025
:1007D000A5C1662309F0A1C11091F1009E01295F16
:1007E0003F4FAE014F5F5F4F81E070DE882309F419
:1007F00095C1E981FA817196E491E11708F48EC1FF
:10080000109314018091E800877F8093E800809125
:10081000E8008E7F8093E8008091E8008F778093D6
:10082000E80003DE7BC1603809F077C180911401D4
:100830008093F1008091E800877F8093E8008091A9
:10084000E8008E7F8093E8008091E8008F778093A6
:10085000E8008091E80082FFFCCF75C06091F10054
:100860008091F1009E01295F3F4FAE014D5F5F4FC8
:100870002DDE882309F452C18091F1008983809193
:10088000F10089832091F1008091F10090E0582FD0
:10089000442730E0422B532B8091E800877F8093E0
:1008A000E8002F8138852417350730F42F73307016
:1008B000232B21F4A1E003C058874F83A0E06B8174
:1008C0007C812F81388520C08091E80080FFFCCF9B
:1008D000FB0190E006C09F5F84918093F100319608
:1008E0009A01BF012115310529F0A901415050405D
:1008F000903489F78091E8008E7F8093E8008091A2
:10090000E8008F778093E8002115310521F0809170
:10091000E80082FFD9CF8091E80082FD14C0AA23AD
:1009200071F08091E80080FFFCCF8091E8008E7F1D
:100930008093E8008091E8008F778093E8008091B1
:10094000E80082FFFCCF8091E8008B7F8093E80075
:100950008091E8008F7769C0A9014F7150704330D2
:10096000510509F4DAC0207630702034310509F4DD
:10097000D4C08091F10089838091F10089838091B6
:10098000F1004130510531F04230510509F1452B5C
:1009900019F0C4C090E025C09E01295F3F4FAE0111
:1009A0004B5F5F4F6091140182E090DD882309F472
:1009B000B5C0ED81FE813796E4918E2F807C11F0D9
:1009C00092E001C090E08E2F807A59F0916009C0CA
:1009D00087708093E9009091EB0090959170109250
:1009E000E9008091E800877F8093E8009093F10010
:1009F0001092F1008091E8008E7F8093E800809152
:100A0000E8008F778093E8008091E80082FFFCCFB8
:100A10008091E8008B7F8093E8008091E8008F77D9
:100A20008093E8008091E800877F8093E80076C09B
:100A3000A9014F7150704330510509F46EC0207602
:100A400030702034310509F468C09091F100809134
:100A5000F10089838091F1004230510509F05EC0B8
:100A6000992309F05BC0982F97709093E9008091CB
:100A7000EB0080FF4FC09923E1F18091EB00806291
:100A800036C0A9014F7150704330510509F445C07B
:100A9000207630702034310509F43FC09091F10088
:100AA0008091F10089838091F10042305105B1F5C8
:100AB0009923A1F5282F27702093E9008091EB005E
:100AC00080FF28C02223A9F08091EB008F7D8093C6
:100AD000EB0081E090E002C0880F991F2A95E2F7B1
:100AE0008093EA001092EA008091EB008860809386
:100AF000EB001092E9008091E800877F8093E80086
:100B00008091E8008E7F8093E8008091E8008F77E5
:100B10008093E8001092E90001C099DB8091E80021
:100B200083FF0AC08091EB0080628093EB0080918C
:100B3000E800877F8093E80028960FB6F894DEBF20
:100B40000FBECDBFDF91CF911F9108958091160107
:100B5000882339F01092E9008091E80083FF01C0FA
:100B6000EBCD08951F920F920FB60F9211242F9381
:100B70003F934F935F936F937F938F939F93AF9325
:100B8000BF93EF93FF938091DA0080FF2EC0809196
:100B9000D80080FF2AC08091DA008E7F8093DA002F
:100BA00098D08091D90080FF0DC093D0809115011D
:100BB0008823D9F0F3DC8823C1F081E0809316010B
:100BC00088D013C086D08091E00081608093E000DF
:100BD0008091D7008E7F8093D7007BD08091DA0000
:100BE0008E7F8093DA00109216018091E10080FFE1
:100BF0001AC08091E20080FF16C08091E1008E7FD4
:100C00008093E1008091D80080628093D80019BC65
:100C10008091E2008E7F8093E2008091E20080610B
:100C20008093E20056D08091E10084FF1EC0809145
:100C3000E20084FF1AC08091E1008F7E8093E10082
:100C40008091D8008F7D8093D8008EE089BD09B453
:100C500000FEFDCF8091E2008F7E8093E2008091C4
:100C6000E20081608093E20034D08091E10083FF54
:100C70001FC08091E20083FF1BC08091E100877F4D
:100C80008093E100109214018091E1008E7F8093A7
:100C9000E1008091E2008E7F8093E2008091E2008B
:100CA00080618093E20040E360E080E00EDD11D0DF
:100CB000FF91EF91BF91AF919F918F917F916F9134
:100CC0005F914F913F912F910F900FBE0F901F900A
:060CD00018950895FFCF06
:0E0CD600A60501D301018025000000000800E2
:00000001FF
